{
  "contracts/Migrations.sol": {
    "Migrations": {
      "abi": [
        {
          "inputs": [
            {
              "internalType": "bytes32",
              "name": "c__0xabb147e4",
              "type": "bytes32"
            }
          ],
          "name": "c_0xabb147e4",
          "outputs": [],
          "stateMutability": "pure",
          "type": "function"
        },
        {
          "inputs": [],
          "name": "last_completed_migration",
          "outputs": [
            {
              "internalType": "uint256",
              "name": "",
              "type": "uint256"
            }
          ],
          "stateMutability": "view",
          "type": "function"
        },
        {
          "inputs": [],
          "name": "owner",
          "outputs": [
            {
              "internalType": "address",
              "name": "",
              "type": "address"
            }
          ],
          "stateMutability": "view",
          "type": "function"
        },
        {
          "inputs": [
            {
              "internalType": "uint256",
              "name": "completed",
              "type": "uint256"
            }
          ],
          "name": "setCompleted",
          "outputs": [],
          "stateMutability": "nonpayable",
          "type": "function"
        }
      ],
      "evm": {
        "bytecode": {
          "linkReferences": {},
          "object": "6080604052336000806101000a81548173ffffffffffffffffffffffffffffffffffffffff021916908373ffffffffffffffffffffffffffffffffffffffff16021790555034801561005057600080fd5b506103cf806100606000396000f3fe608060405234801561001057600080fd5b506004361061004c5760003560e01c8063445df0ac146100515780638da5cb5b1461006f5780639d3cf043146100a3578063fdacd576146100d1575b600080fd5b6100596100ff565b6040518082815260200191505060405180910390f35b610077610105565b604051808273ffffffffffffffffffffffffffffffffffffffff16815260200191505060405180910390f35b6100cf600480360360208110156100b957600080fd5b8101908080359060200190929190505050610129565b005b6100fd600480360360208110156100e757600080fd5b810190808035906020019092919050505061012c565b005b60015481565b60008054906101000a900473ffffffffffffffffffffffffffffffffffffffff1681565b50565b6101587fd5046512d46e33a6845acffadfd1edae344fc32d651ce1ed6e342501296fe06060001b610129565b6101847fc04f4f02df9a30f356b5707c99e7334a580b79dba5132cfa7743f36350e390a360001b610129565b6101b07fccf584977502dca4873f0eccac42573699b8b625ce28d317cff93c64efa1315d60001b610129565b6101dc7f5ebc1168354748aac98338fbcf780960b1c7dff6c5744662d667250e39f5f63360001b610129565b60008054906101000a900473ffffffffffffffffffffffffffffffffffffffff1673ffffffffffffffffffffffffffffffffffffffff163373ffffffffffffffffffffffffffffffffffffffff1614610280576040517f08c379a00000000000000000000000000000000000000000000000000000000081526004018080602001828103825260338152602001806103676033913960400191505060405180910390fd5b6102ac7fd19a8f0f55452b58e34b7ca08928d8f205c8d8eebcf365651448b82ba5a786db60001b610129565b6102d87fa29403cd54b6214f491fcccf132a590a63fa3cd53e3c3b2733bfffdb3236b79060001b610129565b6103047ff45ce12012b9abd3ac6d8a616f43719db5528b3e70c7822796297a43ea8b1c9160001b610129565b6103307fec67cfe99587ece7204487993e407537d9b539167b13bf4a04026d257cb68ad260001b610129565b61035c7f7f15600e8540260d69357a6000cc99f6718a2dd33c27e526395b10e4373b383760001b610129565b806001819055505056fe546869732066756e6374696f6e206973207265737472696374656420746f2074686520636f6e74726163742773206f776e6572a264697066735822122075f73357b348e55ded006c27a1d006b3182a8d4b9c00cd1d10e310432908fc6164736f6c63430007000033",
          "opcodes": "PUSH1 0x80 PUSH1 0x40 MSTORE CALLER PUSH1 0x0 DUP1 PUSH2 0x100 EXP DUP2 SLOAD DUP2 PUSH20 0xFFFFFFFFFFFFFFFFFFFFFFFFFFFFFFFFFFFFFFFF MUL NOT AND SWAP1 DUP4 PUSH20 0xFFFFFFFFFFFFFFFFFFFFFFFFFFFFFFFFFFFFFFFF AND MUL OR SWAP1 SSTORE POP CALLVALUE DUP1 ISZERO PUSH2 0x50 JUMPI PUSH1 0x0 DUP1 REVERT JUMPDEST POP PUSH2 0x3CF DUP1 PUSH2 0x60 PUSH1 0x0 CODECOPY PUSH1 0x0 RETURN INVALID PUSH1 0x80 PUSH1 0x40 MSTORE CALLVALUE DUP1 ISZERO PUSH2 0x10 JUMPI PUSH1 0x0 DUP1 REVERT JUMPDEST POP PUSH1 0x4 CALLDATASIZE LT PUSH2 0x4C JUMPI PUSH1 0x0 CALLDATALOAD PUSH1 0xE0 SHR DUP1 PUSH4 0x445DF0AC EQ PUSH2 0x51 JUMPI DUP1 PUSH4 0x8DA5CB5B EQ PUSH2 0x6F JUMPI DUP1 PUSH4 0x9D3CF043 EQ PUSH2 0xA3 JUMPI DUP1 PUSH4 0xFDACD576 EQ PUSH2 0xD1 JUMPI JUMPDEST PUSH1 0x0 DUP1 REVERT JUMPDEST PUSH2 0x59 PUSH2 0xFF JUMP JUMPDEST PUSH1 0x40 MLOAD DUP1 DUP3 DUP2 MSTORE PUSH1 0x20 ADD SWAP2 POP POP PUSH1 0x40 MLOAD DUP1 SWAP2 SUB SWAP1 RETURN JUMPDEST PUSH2 0x77 PUSH2 0x105 JUMP JUMPDEST PUSH1 0x40 MLOAD DUP1 DUP3 PUSH20 0xFFFFFFFFFFFFFFFFFFFFFFFFFFFFFFFFFFFFFFFF AND DUP2 MSTORE PUSH1 0x20 ADD SWAP2 POP POP PUSH1 0x40 MLOAD DUP1 SWAP2 SUB SWAP1 RETURN JUMPDEST PUSH2 0xCF PUSH1 0x4 DUP1 CALLDATASIZE SUB PUSH1 0x20 DUP2 LT ISZERO PUSH2 0xB9 JUMPI PUSH1 0x0 DUP1 REVERT JUMPDEST DUP2 ADD SWAP1 DUP1 DUP1 CALLDATALOAD SWAP1 PUSH1 0x20 ADD SWAP1 SWAP3 SWAP2 SWAP1 POP POP POP PUSH2 0x129 JUMP JUMPDEST STOP JUMPDEST PUSH2 0xFD PUSH1 0x4 DUP1 CALLDATASIZE SUB PUSH1 0x20 DUP2 LT ISZERO PUSH2 0xE7 JUMPI PUSH1 0x0 DUP1 REVERT JUMPDEST DUP2 ADD SWAP1 DUP1 DUP1 CALLDATALOAD SWAP1 PUSH1 0x20 ADD SWAP1 SWAP3 SWAP2 SWAP1 POP POP POP PUSH2 0x12C JUMP JUMPDEST STOP JUMPDEST PUSH1 0x1 SLOAD DUP2 JUMP JUMPDEST PUSH1 0x0 DUP1 SLOAD SWAP1 PUSH2 0x100 EXP SWAP1 DIV PUSH20 0xFFFFFFFFFFFFFFFFFFFFFFFFFFFFFFFFFFFFFFFF AND DUP2 JUMP JUMPDEST POP JUMP JUMPDEST PUSH2 0x158 PUSH32 0xD5046512D46E33A6845ACFFADFD1EDAE344FC32D651CE1ED6E342501296FE060 PUSH1 0x0 SHL PUSH2 0x129 JUMP JUMPDEST PUSH2 0x184 PUSH32 0xC04F4F02DF9A30F356B5707C99E7334A580B79DBA5132CFA7743F36350E390A3 PUSH1 0x0 SHL PUSH2 0x129 JUMP JUMPDEST PUSH2 0x1B0 PUSH32 0xCCF584977502DCA4873F0ECCAC42573699B8B625CE28D317CFF93C64EFA1315D PUSH1 0x0 SHL PUSH2 0x129 JUMP JUMPDEST PUSH2 0x1DC PUSH32 0x5EBC1168354748AAC98338FBCF780960B1C7DFF6C5744662D667250E39F5F633 PUSH1 0x0 SHL PUSH2 0x129 JUMP JUMPDEST PUSH1 0x0 DUP1 SLOAD SWAP1 PUSH2 0x100 EXP SWAP1 DIV PUSH20 0xFFFFFFFFFFFFFFFFFFFFFFFFFFFFFFFFFFFFFFFF AND PUSH20 0xFFFFFFFFFFFFFFFFFFFFFFFFFFFFFFFFFFFFFFFF AND CALLER PUSH20 0xFFFFFFFFFFFFFFFFFFFFFFFFFFFFFFFFFFFFFFFF AND EQ PUSH2 0x280 JUMPI PUSH1 0x40 MLOAD PUSH32 0x8C379A000000000000000000000000000000000000000000000000000000000 DUP2 MSTORE PUSH1 0x4 ADD DUP1 DUP1 PUSH1 0x20 ADD DUP3 DUP2 SUB DUP3 MSTORE PUSH1 0x33 DUP2 MSTORE PUSH1 0x20 ADD DUP1 PUSH2 0x367 PUSH1 0x33 SWAP2 CODECOPY PUSH1 0x40 ADD SWAP2 POP POP PUSH1 0x40 MLOAD DUP1 SWAP2 SUB SWAP1 REVERT JUMPDEST PUSH2 0x2AC PUSH32 0xD19A8F0F55452B58E34B7CA08928D8F205C8D8EEBCF365651448B82BA5A786DB PUSH1 0x0 SHL PUSH2 0x129 JUMP JUMPDEST PUSH2 0x2D8 PUSH32 0xA29403CD54B6214F491FCCCF132A590A63FA3CD53E3C3B2733BFFFDB3236B790 PUSH1 0x0 SHL PUSH2 0x129 JUMP JUMPDEST PUSH2 0x304 PUSH32 0xF45CE12012B9ABD3AC6D8A616F43719DB5528B3E70C7822796297A43EA8B1C91 PUSH1 0x0 SHL PUSH2 0x129 JUMP JUMPDEST PUSH2 0x330 PUSH32 0xEC67CFE99587ECE7204487993E407537D9B539167B13BF4A04026D257CB68AD2 PUSH1 0x0 SHL PUSH2 0x129 JUMP JUMPDEST PUSH2 0x35C PUSH32 0x7F15600E8540260D69357A6000CC99F6718A2DD33C27E526395B10E4373B3837 PUSH1 0x0 SHL PUSH2 0x129 JUMP JUMPDEST DUP1 PUSH1 0x1 DUP2 SWAP1 SSTORE POP POP JUMP INVALID SLOAD PUSH9 0x69732066756E637469 PUSH16 0x6E206973207265737472696374656420 PUSH21 0x6F2074686520636F6E74726163742773206F776E65 PUSH19 0xA264697066735822122075F73357B348E55DED STOP PUSH13 0x27A1D006B3182A8D4B9C00CD1D LT 0xE3 LT NUMBER 0x29 ADDMOD 0xFC PUSH2 0x6473 PUSH16 0x6C634300070000330000000000000000 "
        },
        "methodIdentifiers": {
          "c_0xabb147e4(bytes32)": "9d3cf043",
          "last_completed_migration()": "445df0ac",
          "owner()": "8da5cb5b",
          "setCompleted(uint256)": "fdacd576"
        }
      }
    }
  }
}