{
  "contracts/TellorAccess.sol": {
    "SafeMath": {
      "abi": [
        {
          "inputs": [
            {
              "internalType": "bytes32",
              "name": "c__0xcb92bccd",
              "type": "bytes32"
            }
          ],
          "name": "c_0xcb92bccd",
          "outputs": [],
          "stateMutability": "pure",
          "type": "function"
        }
      ],
      "evm": {
        "bytecode": {
          "linkReferences": {},
          "object": "609c610024600b82828239805160001a607314601757fe5b30600052607381538281f3fe730000000000000000000000000000000000000000301460806040526004361060335760003560e01c8063fa401a6a146038575b600080fd5b606160048036036020811015604c57600080fd5b81019080803590602001909291905050506063565b005b5056fea26469706673582212205b0494540674642a74b9d9b9b088a62fac397c11ccc4cb049ddfe3792d3d5e6864736f6c63430007000033",
          "opcodes": "PUSH1 0x9C PUSH2 0x24 PUSH1 0xB DUP3 DUP3 DUP3 CODECOPY DUP1 MLOAD PUSH1 0x0 BYTE PUSH1 0x73 EQ PUSH1 0x17 JUMPI INVALID JUMPDEST ADDRESS PUSH1 0x0 MSTORE PUSH1 0x73 DUP2 MSTORE8 DUP3 DUP2 RETURN INVALID PUSH20 0x0 ADDRESS EQ PUSH1 0x80 PUSH1 0x40 MSTORE PUSH1 0x4 CALLDATASIZE LT PUSH1 0x33 JUMPI PUSH1 0x0 CALLDATALOAD PUSH1 0xE0 SHR DUP1 PUSH4 0xFA401A6A EQ PUSH1 0x38 JUMPI JUMPDEST PUSH1 0x0 DUP1 REVERT JUMPDEST PUSH1 0x61 PUSH1 0x4 DUP1 CALLDATASIZE SUB PUSH1 0x20 DUP2 LT ISZERO PUSH1 0x4C JUMPI PUSH1 0x0 DUP1 REVERT JUMPDEST DUP2 ADD SWAP1 DUP1 DUP1 CALLDATALOAD SWAP1 PUSH1 0x20 ADD SWAP1 SWAP3 SWAP2 SWAP1 POP POP POP PUSH1 0x63 JUMP JUMPDEST STOP JUMPDEST POP JUMP INVALID LOG2 PUSH5 0x6970667358 0x22 SLT KECCAK256 JUMPDEST DIV SWAP5 SLOAD MOD PUSH21 0x642A74B9D9B9B088A62FAC397C11CCC4CB049DDFE3 PUSH26 0x2D3D5E6864736F6C634300070000330000000000000000000000 "
        },
        "methodIdentifiers": {
          "c_0xcb92bccd(bytes32)": "fa401a6a"
        }
      }
    }
  }
}