{
  "contracts/TellorAccess.sol": {
    "TellorAccess": {
      "abi": [
        {
          "inputs": [],
          "stateMutability": "nonpayable",
          "type": "constructor"
        },
        {
          "anonymous": false,
          "inputs": [
            {
              "indexed": false,
              "internalType": "uint256",
              "name": "_requestId",
              "type": "uint256"
            },
            {
              "indexed": false,
              "internalType": "uint256",
              "name": "_time",
              "type": "uint256"
            },
            {
              "indexed": false,
              "internalType": "uint256",
              "name": "_value",
              "type": "uint256"
            }
          ],
          "name": "NewValue",
          "type": "event"
        },
        {
          "anonymous": false,
          "inputs": [
            {
              "indexed": true,
              "internalType": "bytes32",
              "name": "role",
              "type": "bytes32"
            },
            {
              "indexed": true,
              "internalType": "bytes32",
              "name": "previousAdminRole",
              "type": "bytes32"
            },
            {
              "indexed": true,
              "internalType": "bytes32",
              "name": "newAdminRole",
              "type": "bytes32"
            }
          ],
          "name": "RoleAdminChanged",
          "type": "event"
        },
        {
          "anonymous": false,
          "inputs": [
            {
              "indexed": true,
              "internalType": "bytes32",
              "name": "role",
              "type": "bytes32"
            },
            {
              "indexed": true,
              "internalType": "address",
              "name": "account",
              "type": "address"
            },
            {
              "indexed": true,
              "internalType": "address",
              "name": "sender",
              "type": "address"
            }
          ],
          "name": "RoleGranted",
          "type": "event"
        },
        {
          "anonymous": false,
          "inputs": [
            {
              "indexed": true,
              "internalType": "bytes32",
              "name": "role",
              "type": "bytes32"
            },
            {
              "indexed": true,
              "internalType": "address",
              "name": "account",
              "type": "address"
            },
            {
              "indexed": true,
              "internalType": "address",
              "name": "sender",
              "type": "address"
            }
          ],
          "name": "RoleRevoked",
          "type": "event"
        },
        {
          "inputs": [],
          "name": "DEFAULT_ADMIN_ROLE",
          "outputs": [
            {
              "internalType": "bytes32",
              "name": "",
              "type": "bytes32"
            }
          ],
          "stateMutability": "view",
          "type": "function"
        },
        {
          "inputs": [],
          "name": "REPORTER_ROLE",
          "outputs": [
            {
              "internalType": "bytes32",
              "name": "",
              "type": "bytes32"
            }
          ],
          "stateMutability": "view",
          "type": "function"
        },
        {
          "inputs": [
            {
              "internalType": "address",
              "name": "account",
              "type": "address"
            }
          ],
          "name": "addAdmin",
          "outputs": [],
          "stateMutability": "nonpayable",
          "type": "function"
        },
        {
          "inputs": [
            {
              "internalType": "address",
              "name": "account",
              "type": "address"
            }
          ],
          "name": "addReporter",
          "outputs": [],
          "stateMutability": "nonpayable",
          "type": "function"
        },
        {
          "inputs": [
            {
              "internalType": "bytes32",
              "name": "c__0xf503494c",
              "type": "bytes32"
            }
          ],
          "name": "c_0xf503494c",
          "outputs": [],
          "stateMutability": "pure",
          "type": "function"
        },
        {
          "inputs": [
            {
              "internalType": "uint256",
              "name": "_requestId",
              "type": "uint256"
            }
          ],
          "name": "getNewValueCountbyRequestId",
          "outputs": [
            {
              "internalType": "uint256",
              "name": "",
              "type": "uint256"
            }
          ],
          "stateMutability": "view",
          "type": "function"
        },
        {
          "inputs": [
            {
              "internalType": "bytes32",
              "name": "role",
              "type": "bytes32"
            }
          ],
          "name": "getRoleAdmin",
          "outputs": [
            {
              "internalType": "bytes32",
              "name": "",
              "type": "bytes32"
            }
          ],
          "stateMutability": "view",
          "type": "function"
        },
        {
          "inputs": [
            {
              "internalType": "bytes32",
              "name": "role",
              "type": "bytes32"
            },
            {
              "internalType": "uint256",
              "name": "index",
              "type": "uint256"
            }
          ],
          "name": "getRoleMember",
          "outputs": [
            {
              "internalType": "address",
              "name": "",
              "type": "address"
            }
          ],
          "stateMutability": "view",
          "type": "function"
        },
        {
          "inputs": [
            {
              "internalType": "bytes32",
              "name": "role",
              "type": "bytes32"
            }
          ],
          "name": "getRoleMemberCount",
          "outputs": [
            {
              "internalType": "uint256",
              "name": "",
              "type": "uint256"
            }
          ],
          "stateMutability": "view",
          "type": "function"
        },
        {
          "inputs": [
            {
              "internalType": "uint256",
              "name": "_requestId",
              "type": "uint256"
            },
            {
              "internalType": "uint256",
              "name": "index",
              "type": "uint256"
            }
          ],
          "name": "getTimestampbyRequestIDandIndex",
          "outputs": [
            {
              "internalType": "uint256",
              "name": "",
              "type": "uint256"
            }
          ],
          "stateMutability": "view",
          "type": "function"
        },
        {
          "inputs": [
            {
              "internalType": "bytes32",
              "name": "role",
              "type": "bytes32"
            },
            {
              "internalType": "address",
              "name": "account",
              "type": "address"
            }
          ],
          "name": "grantRole",
          "outputs": [],
          "stateMutability": "nonpayable",
          "type": "function"
        },
        {
          "inputs": [
            {
              "internalType": "bytes32",
              "name": "role",
              "type": "bytes32"
            },
            {
              "internalType": "address",
              "name": "account",
              "type": "address"
            }
          ],
          "name": "hasRole",
          "outputs": [
            {
              "internalType": "bool",
              "name": "",
              "type": "bool"
            }
          ],
          "stateMutability": "view",
          "type": "function"
        },
        {
          "inputs": [
            {
              "internalType": "address",
              "name": "account",
              "type": "address"
            }
          ],
          "name": "isAdmin",
          "outputs": [
            {
              "internalType": "bool",
              "name": "",
              "type": "bool"
            }
          ],
          "stateMutability": "view",
          "type": "function"
        },
        {
          "inputs": [
            {
              "internalType": "address",
              "name": "account",
              "type": "address"
            }
          ],
          "name": "isReporter",
          "outputs": [
            {
              "internalType": "bool",
              "name": "",
              "type": "bool"
            }
          ],
          "stateMutability": "view",
          "type": "function"
        },
        {
          "inputs": [
            {
              "internalType": "address",
              "name": "account",
              "type": "address"
            }
          ],
          "name": "removeReporter",
          "outputs": [],
          "stateMutability": "nonpayable",
          "type": "function"
        },
        {
          "inputs": [],
          "name": "renounceAdmin",
          "outputs": [],
          "stateMutability": "nonpayable",
          "type": "function"
        },
        {
          "inputs": [
            {
              "internalType": "bytes32",
              "name": "role",
              "type": "bytes32"
            },
            {
              "internalType": "address",
              "name": "account",
              "type": "address"
            }
          ],
          "name": "renounceRole",
          "outputs": [],
          "stateMutability": "nonpayable",
          "type": "function"
        },
        {
          "inputs": [
            {
              "internalType": "uint256",
              "name": "_requestId",
              "type": "uint256"
            },
            {
              "internalType": "uint256",
              "name": "_timestamp",
              "type": "uint256"
            }
          ],
          "name": "retrieveData",
          "outputs": [
            {
              "internalType": "uint256",
              "name": "",
              "type": "uint256"
            }
          ],
          "stateMutability": "view",
          "type": "function"
        },
        {
          "inputs": [
            {
              "internalType": "bytes32",
              "name": "role",
              "type": "bytes32"
            },
            {
              "internalType": "address",
              "name": "account",
              "type": "address"
            }
          ],
          "name": "revokeRole",
          "outputs": [],
          "stateMutability": "nonpayable",
          "type": "function"
        },
        {
          "inputs": [
            {
              "internalType": "uint256",
              "name": "_requestId",
              "type": "uint256"
            },
            {
              "internalType": "uint256",
              "name": "_value",
              "type": "uint256"
            }
          ],
          "name": "submitValue",
          "outputs": [],
          "stateMutability": "nonpayable",
          "type": "function"
        },
        {
          "inputs": [
            {
              "internalType": "uint256",
              "name": "",
              "type": "uint256"
            },
            {
              "internalType": "uint256",
              "name": "",
              "type": "uint256"
            }
          ],
          "name": "timestamps",
          "outputs": [
            {
              "internalType": "uint256",
              "name": "",
              "type": "uint256"
            }
          ],
          "stateMutability": "view",
          "type": "function"
        },
        {
          "inputs": [
            {
              "internalType": "uint256",
              "name": "",
              "type": "uint256"
            },
            {
              "internalType": "uint256",
              "name": "",
              "type": "uint256"
            }
          ],
          "name": "values",
          "outputs": [
            {
              "internalType": "uint256",
              "name": "",
              "type": "uint256"
            }
          ],
          "stateMutability": "view",
          "type": "function"
        }
      ],
      "evm": {
        "bytecode": {
          "linkReferences": {},
          "object": "60806040523480156200001157600080fd5b50620000467fc6b08aee1d651760292ac4042ea653f2242c01b27c692bf2f796b0dd118556fd60001b6200016660201b60201c565b6200007a7f4e39c00eefbbee98d2cded56bb95f7b6ed06a4e14a1e4d257e2f1f43a905666c60001b6200016660201b60201c565b620000ae7faec841abfb4957ad012487614461e6cc819f606aa8dca6a82a2aeb52739ed59f60001b6200016660201b60201c565b620000c36000801b336200016960201b60201c565b620000f77f3f0cecc29788bc24b8534dfb7b04d0f2cce8ce746eec94b4526b5031cedf0a8260001b6200016660201b60201c565b6200012b7f4098d1e1716964bc267dbc393b9ef5d166b4ccfd39b13c3456c564f44e2f0dfe60001b6200016660201b60201c565b620001607f176c2b761bfeb5dab89f614b6c08152e31d9230394b3605eabf32249ea1c89a66000801b6200017f60201b60201c565b62000361565b50565b6200017b8282620001e160201b60201c565b5050565b8060008084815260200190815260200160002060020154837fbd79b86ffe0ab8e8776151514217cd7cacd52c909f66475c3af44e129f0b00ff60405160405180910390a480600080848152602001908152602001600020600201819055505050565b6200020f816000808581526020019081526020016000206000016200028460201b6200190c1790919060201c565b15620002805762000225620002bc60201b60201c565b73ffffffffffffffffffffffffffffffffffffffff168173ffffffffffffffffffffffffffffffffffffffff16837f2f8788117e7eff1d82e926ec794901d17c78024a50270940304540a733656f0d60405160405180910390a45b5050565b6000620002b4836000018373ffffffffffffffffffffffffffffffffffffffff1660001b620002c460201b60201c565b905092915050565b600033905090565b6000620002d883836200033e60201b60201c565b6200033357826000018290806001815401808255809150506001900390600052602060002001600090919091909150558260000180549050836001016000848152602001908152602001600020819055506001905062000338565b600090505b92915050565b600080836001016000848152602001908152602001600020541415905092915050565b611e2080620003716000396000f3fe608060405234801561001057600080fd5b50600436106101825760003560e01c80638bad0c0a116100d8578063a31837011161008c578063dd8755f211610066578063dd8755f21461069b578063de0ef188146106df578063fb0ceb041461070d57610182565b8063a3183701146105bf578063ca15c8731461060b578063d547741f1461064d57610182565b806391d14854116100bd57806391d14854146104f157806393fa491514610555578063a217fddf146105a157610182565b80638bad0c0a146104855780639010d07c1461048f57610182565b80633f60d7991161013a57806362f551121161011457806362f55112146103bd57806370480275146103f557806377fbb6631461043957610182565b80633f60d7991461031957806346eee1c4146103375780635de5c2121461037957610182565b806324d7806c1161016b57806324d7806c146102235780632f2ff15d1461027d57806336568abe146102cb57610182565b8063044ad7be14610187578063248a9ca3146101e1575b600080fd5b6101c96004803603602081101561019d57600080fd5b81019080803573ffffffffffffffffffffffffffffffffffffffff169060200190929190505050610759565b60405180821515815260200191505060405180910390f35b61020d600480360360208110156101f757600080fd5b8101908080359060200190929190505050610810565b6040518082815260200191505060405180910390f35b6102656004803603602081101561023957600080fd5b81019080803573ffffffffffffffffffffffffffffffffffffffff16906020019092919050505061082f565b60405180821515815260200191505060405180910390f35b6102c96004803603604081101561029357600080fd5b8101908080359060200190929190803573ffffffffffffffffffffffffffffffffffffffff1690602001909291905050506108c9565b005b610317600480360360408110156102e157600080fd5b8101908080359060200190929190803573ffffffffffffffffffffffffffffffffffffffff169060200190929190505050610952565b005b6103216109eb565b6040518082815260200191505060405180910390f35b6103636004803603602081101561034d57600080fd5b8101908080359060200190929190505050610a0f565b6040518082815260200191505060405180910390f35b6103bb6004803603602081101561038f57600080fd5b81019080803573ffffffffffffffffffffffffffffffffffffffff169060200190929190505050610ab3565b005b6103f3600480360360408110156103d357600080fd5b810190808035906020019092919080359060200190929190505050610ce7565b005b6104376004803603602081101561040b57600080fd5b81019080803573ffffffffffffffffffffffffffffffffffffffff169060200190929190505050610fe7565b005b61046f6004803603604081101561044f57600080fd5b8101908080359060200190929190803590602001909291905050506111fe565b6040518082815260200191505060405180910390f35b61048d611424565b005b6104c5600480360360408110156104a557600080fd5b8101908080359060200190929190803590602001909291905050506114b7565b604051808273ffffffffffffffffffffffffffffffffffffffff16815260200191505060405180910390f35b61053d6004803603604081101561050757600080fd5b8101908080359060200190929190803573ffffffffffffffffffffffffffffffffffffffff1690602001909291905050506114e8565b60405180821515815260200191505060405180910390f35b61058b6004803603604081101561056b57600080fd5b810190808035906020019092919080359060200190929190505050611519565b6040518082815260200191505060405180910390f35b6105a96115cc565b6040518082815260200191505060405180910390f35b6105f5600480360360408110156105d557600080fd5b8101908080359060200190929190803590602001909291905050506115d3565b6040518082815260200191505060405180910390f35b6106376004803603602081101561062157600080fd5b81019080803590602001909291905050506115f8565b6040518082815260200191505060405180910390f35b6106996004803603604081101561066357600080fd5b8101908080359060200190929190803573ffffffffffffffffffffffffffffffffffffffff16906020019092919050505061161e565b005b6106dd600480360360208110156106b157600080fd5b81019080803573ffffffffffffffffffffffffffffffffffffffff1690602001909291905050506116a7565b005b61070b600480360360208110156106f557600080fd5b81019080803590602001909291905050506118db565b005b6107436004803603604081101561072357600080fd5b8101908080359060200190929190803590602001909291905050506118de565b6040518082815260200191505060405180910390f35b60006107877ff54de96a6b0f1e302aee8d7f95829cefaa70b030610ecb0951f2e4bbaf8ce0c960001b6118db565b6107b37fdab20ba11bed5171be2c2d093a3957bd914953271a869801b87be44cf64523c260001b6118db565b6107df7ff5e03f50ce48fb20f632d63549ee11d9ec9348358f87d56206f2e23cc0d8a0e560001b6118db565b6108097f176c2b761bfeb5dab89f614b6c08152e31d9230394b3605eabf32249ea1c89a6836114e8565b9050919050565b6000806000838152602001908152602001600020600201549050919050565b600061085d7f8623039a08acd822dee121268547e346d7e7bea142de92a38c0f94b4669e58e860001b6118db565b6108897fcb806bb50a07d306fe4b316dfb44150591788ad097f80609103c5f7206acf0e360001b6118db565b6108b57f9a2a3cc0e1c51a161fc2f8ae5596c51c35ab179eeaad4b058be813e61897b4c860001b6118db565b6108c26000801b836114e8565b9050919050565b6108ef600080848152602001908152602001600020600201546108ea61193c565b6114e8565b610944576040517f08c379a000000000000000000000000000000000000000000000000000000000815260040180806020018281038252602f815260200180611d2b602f913960400191505060405180910390fd5b61094e8282611944565b5050565b61095a61193c565b73ffffffffffffffffffffffffffffffffffffffff168173ffffffffffffffffffffffffffffffffffffffff16146109dd576040517f08c379a000000000000000000000000000000000000000000000000000000000815260040180806020018281038252602f815260200180611dbc602f913960400191505060405180910390fd5b6109e782826119d7565b5050565b7f176c2b761bfeb5dab89f614b6c08152e31d9230394b3605eabf32249ea1c89a681565b6000610a3d7f503a16da38e71e7bace6fe1f99c69adf154700b332f7356a846e033dec9741da60001b6118db565b610a697f2ed8d5fe9135677c477f8f3ecd7a4256f04a4ff301bba1bd98f77b53b0f5aa5060001b6118db565b610a957f11aa2427fc89ed6e6ed31a082ab8c6ba00ecac83001d180ff9e562917cdc338760001b6118db565b60026000838152602001908152602001600020805490509050919050565b610adf7f0e77a5e54c196ea29dc309e2f68c4223daf1968de80adc5a2ac702bf5ab9c79e60001b6118db565b610b0b7fe9f980434a095784833a291a073cdb6a41ab9199099578db1d3341acd44a2de460001b6118db565b610b377f9595b610fd1b9c919129dea5ddfe638c65600694e2ce37d9422f767f67c136ec60001b6118db565b610b637f78d0f1e7604b8b03fc1f985b1f847a1c7ffd01321438d1e4bd201dc1078a72a860001b6118db565b610b6c3361082f565b610bde576040517f08c379a00000000000000000000000000000000000000000000000000000000081526004018080602001828103825260158152602001807f5265737472696374656420746f2061646d696e732e000000000000000000000081525060200191505060405180910390fd5b610c0a7f429b3ecf8c1da568a2089c011fbeed3678bf23e259fd14668e6fbfef767fe46860001b6118db565b610c367f033b13fa1064ccc6c9ad4d7776ecef9aec9835a1d8f0c6150cd947abd1899cd560001b6118db565b610c627ff97011770cd3eebb1618366d789416ba95163a626f368ca4383dffc1952b3c7660001b6118db565b610c8e7f610617ce496b0c0d0459b71c9c95724872c5b0252c78f630ff2c583c044f22d760001b6118db565b610cba7fb934982a5d13e5de7749ddcb19a0d3e46082f0724fe020fb64b00bc5ba3d4a5f60001b6118db565b610ce47f176c2b761bfeb5dab89f614b6c08152e31d9230394b3605eabf32249ea1c89a68261161e565b50565b610d137fb68984996296ad029cf1c0a5f1a0dbe3b4c1cc9783e3496ab762570e9311a54e60001b6118db565b610d3f7fcd8329a6919154e0b467c3c10a069c8c734098c58a236f23f9cec2f183e0561e60001b6118db565b610d6b7f407a553c794813dffd15ec66138cbcb88cf43cf000721ba905f91c17106a220160001b6118db565b610d977f1494819d655fdf72b94a9ff2c059ce92bdf5a1d1e8793979f69782874fe8313060001b6118db565b610da033610759565b80610db05750610daf3361082f565b5b610e05576040517f08c379a0000000000000000000000000000000000000000000000000000000008152600401808060200182810382526032815260200180611d5a6032913960400191505060405180910390fd5b610e317f8ca6475829765540af2c1b59ee2d814b5dd433cf52800d812f9e6774b55eb37660001b6118db565b610e5d7f920e320c5254fcf4049309d9897d4bc88721355ee56cfa7e51d84d1950d3bd0760001b6118db565b610e897fad4f78a587a01de431bcebb6a5c73627d8d338a654d65bc681f544b18ef87fe460001b6118db565b8060016000848152602001908152602001600020600042815260200190815260200160002081905550610ede7fdbf86b1ec5755caa9ebfe27e46b4413982ff59ff910f42a487b0eedff95e364b60001b6118db565b610f0a7f2d16d3e857355920d0623bdd93cc0d23ad3ccd45e0df5a75d7bbfbabe13741df60001b6118db565b60026000838152602001908152602001600020429080600181540180825580915050600190039060005260206000200160009091909190915055610f707ffac8d8cdacd09a6c65b89771ff88b2a5673371a4be79ab262af1669a31b618b460001b6118db565b610f9c7f3c48e8bd819e8b6df826dc24c7aa9fe3d831b9b618c0b7b721052ffb026aed7f60001b6118db565b7fba11e319aee26e7bbac889432515ba301ec8f6d27bf6b94829c21a65c5f6ff2582428360405180848152602001838152602001828152602001935050505060405180910390a15050565b6110137f0e77a5e54c196ea29dc309e2f68c4223daf1968de80adc5a2ac702bf5ab9c79e60001b6118db565b61103f7fe9f980434a095784833a291a073cdb6a41ab9199099578db1d3341acd44a2de460001b6118db565b61106b7f9595b610fd1b9c919129dea5ddfe638c65600694e2ce37d9422f767f67c136ec60001b6118db565b6110977f78d0f1e7604b8b03fc1f985b1f847a1c7ffd01321438d1e4bd201dc1078a72a860001b6118db565b6110a03361082f565b611112576040517f08c379a00000000000000000000000000000000000000000000000000000000081526004018080602001828103825260158152602001807f5265737472696374656420746f2061646d696e732e000000000000000000000081525060200191505060405180910390fd5b61113e7f429b3ecf8c1da568a2089c011fbeed3678bf23e259fd14668e6fbfef767fe46860001b6118db565b61116a7f033b13fa1064ccc6c9ad4d7776ecef9aec9835a1d8f0c6150cd947abd1899cd560001b6118db565b6111967fe22d29e131054f3c994f0d6d0e56b945c3b27d7d46bba6051e5117dc2557a9ce60001b6118db565b6111c27f5d9d4e99a91272d9835f0344f013f5ecedd68addb9fe76318cc5ab6ccc528aa760001b6118db565b6111ee7f779753cdb8855d295ba63b5e4fe53b52bf48c517a4f99d1e2b4bd54a790b952b60001b6118db565b6111fb6000801b826108c9565b50565b600061122c7f277c50936358732bcb7ce0411a22cbe9ab2337b20bd35e5dd5e1da7a1f6e652e60001b6118db565b6112587fcc87f107edf8d44825dcab64e93c264d8e2e046b5bab84d3729ebbad781942c260001b6118db565b6112847f3ba42484ad8627222eb591cc7f5f41bc3e009db7b608b17adde0ed502e9c760a60001b6118db565b6000600260008581526020019081526020016000208054905090506112cb7ff813aad69bac4a813ed915bc4dbaa09cbf71a2af0d7c9a330736e2f36f0a0ed460001b6118db565b6112f77fc3cefdf26052bb70f9ddb00df44cc5beb13dc5e2968f244d0f51beada13720d560001b6118db565b60008114806113065750828111155b1561136d576113377f2e33720cf25f6b8e1092b5a1bb96fb16002cef3d8405d41a71c58af31be2ce8860001b6118db565b6113637f09f30554b2afe6c5ae770212b081f5de25ec9de1167a12c385bffb04989c9e2c60001b6118db565b600091505061141e565b6113997fd6e06438bb09af04503f235afee5e843e740b935e191b28eca427e01bdfaf85f60001b6118db565b6113c57fc902d63022b053c0c683c7861c39e35890eefaf3707eea062b6829cc7b18777760001b6118db565b6113f17f06691175a989b65eb9bd39d4bc024718fbdc0d256b780c67cf49916d878e4a4b60001b6118db565b60026000858152602001908152602001600020838154811061140f57fe5b90600052602060002001549150505b92915050565b6114507f476652241d4761bd624a0c2555256ff09d5fb8c6084d631fe985ef14595f3d6160001b6118db565b61147c7f622c26f9fef51842b1a83c52fb48b055910186a93cae8de00b07e43937bec61060001b6118db565b6114a87f0409301906a6a9c2144c18a65b7d89aedd2ff8a4801f344b8c4c9bd1820c5b9960001b6118db565b6114b56000801b33610952565b565b60006114e082600080868152602001908152602001600020600001611a6a90919063ffffffff16565b905092915050565b600061151182600080868152602001908152602001600020600001611a8490919063ffffffff16565b905092915050565b60006115477f3f18806e18d20dd0c20b1b0ace60256d681454dd013ca49ecfb200390d8ddf8860001b6118db565b6115737f6d00c549f3c0bded4cdae463341b651885e0fb498816f59bfd10568a1ddf965260001b6118db565b61159f7f8584091a725cc0c597289f1ede5eac9c8c2d5779c561d38d703684b79d22f7c160001b6118db565b60016000848152602001908152602001600020600083815260200190815260200160002054905092915050565b6000801b81565b6001602052816000526040600020602052806000526040600020600091509150505481565b6000611617600080848152602001908152602001600020600001611ab4565b9050919050565b6116446000808481526020019081526020016000206002015461163f61193c565b6114e8565b611699576040517f08c379a0000000000000000000000000000000000000000000000000000000008152600401808060200182810382526030815260200180611d8c6030913960400191505060405180910390fd5b6116a382826119d7565b5050565b6116d37f0e77a5e54c196ea29dc309e2f68c4223daf1968de80adc5a2ac702bf5ab9c79e60001b6118db565b6116ff7fe9f980434a095784833a291a073cdb6a41ab9199099578db1d3341acd44a2de460001b6118db565b61172b7f9595b610fd1b9c919129dea5ddfe638c65600694e2ce37d9422f767f67c136ec60001b6118db565b6117577f78d0f1e7604b8b03fc1f985b1f847a1c7ffd01321438d1e4bd201dc1078a72a860001b6118db565b6117603361082f565b6117d2576040517f08c379a00000000000000000000000000000000000000000000000000000000081526004018080602001828103825260158152602001807f5265737472696374656420746f2061646d696e732e000000000000000000000081525060200191505060405180910390fd5b6117fe7f429b3ecf8c1da568a2089c011fbeed3678bf23e259fd14668e6fbfef767fe46860001b6118db565b61182a7f033b13fa1064ccc6c9ad4d7776ecef9aec9835a1d8f0c6150cd947abd1899cd560001b6118db565b6118567f5513e8eb426176372e83e140cada4fa2da0f8572dee369b0c6c23b216dd0336e60001b6118db565b6118827f5b1d0c6a7147f51924e51f4f33b18c5a033c2652cbf52b128f85a628c0f5a52760001b6118db565b6118ae7feb3f27b671e7dcbf9a96657edddce7d837b25ad448e7ca694624a31bbdf1dd1760001b6118db565b6118d87f176c2b761bfeb5dab89f614b6c08152e31d9230394b3605eabf32249ea1c89a6826108c9565b50565b50565b600260205281600052604060002081815481106118f757fe5b90600052602060002001600091509150505481565b6000611934836000018373ffffffffffffffffffffffffffffffffffffffff1660001b611ac9565b905092915050565b600033905090565b61196b8160008085815260200190815260200160002060000161190c90919063ffffffff16565b156119d35761197861193c565b73ffffffffffffffffffffffffffffffffffffffff168173ffffffffffffffffffffffffffffffffffffffff16837f2f8788117e7eff1d82e926ec794901d17c78024a50270940304540a733656f0d60405160405180910390a45b5050565b6119fe81600080858152602001908152602001600020600001611b3990919063ffffffff16565b15611a6657611a0b61193c565b73ffffffffffffffffffffffffffffffffffffffff168173ffffffffffffffffffffffffffffffffffffffff16837ff6391f5c32d9c69d2a47ea670b442974b53935d1edc7fd64eb21e047a839171b60405160405180910390a45b5050565b6000611a798360000183611b69565b60001c905092915050565b6000611aac836000018373ffffffffffffffffffffffffffffffffffffffff1660001b611bec565b905092915050565b6000611ac282600001611c0f565b9050919050565b6000611ad58383611bec565b611b2e578260000182908060018154018082558091505060019003906000526020600020016000909190919091505582600001805490508360010160008481526020019081526020016000208190555060019050611b33565b600090505b92915050565b6000611b61836000018373ffffffffffffffffffffffffffffffffffffffff1660001b611c20565b905092915050565b600081836000018054905011611bca576040517f08c379a0000000000000000000000000000000000000000000000000000000008152600401808060200182810382526022815260200180611d096022913960400191505060405180910390fd5b826000018281548110611bd957fe5b9060005260206000200154905092915050565b600080836001016000848152602001908152602001600020541415905092915050565b600081600001805490509050919050565b60008083600101600084815260200190815260200160002054905060008114611cfc5760006001820390506000600186600001805490500390506000866000018281548110611c6b57fe5b9060005260206000200154905080876000018481548110611c8857fe5b9060005260206000200181905550600183018760010160008381526020019081526020016000208190555086600001805480611cc057fe5b60019003818190600052602060002001600090559055866001016000878152602001908152602001600020600090556001945050505050611d02565b60009150505b9291505056fe456e756d657261626c655365743a20696e646578206f7574206f6620626f756e6473416363657373436f6e74726f6c3a2073656e646572206d75737420626520616e2061646d696e20746f206772616e7453656e646572206d75737420626520616e2041646d696e206f72205265706f7274657220746f207375626d697456616c7565416363657373436f6e74726f6c3a2073656e646572206d75737420626520616e2061646d696e20746f207265766f6b65416363657373436f6e74726f6c3a2063616e206f6e6c792072656e6f756e636520726f6c657320666f722073656c66a2646970667358221220b2f2daa2765acc3d02bd3c3216c1f2182395680941168bf64e1586f4bff2521f64736f6c63430007000033",
          "opcodes": "PUSH1 0x80 PUSH1 0x40 MSTORE CALLVALUE DUP1 ISZERO PUSH3 0x11 JUMPI PUSH1 0x0 DUP1 REVERT JUMPDEST POP PUSH3 0x46 PUSH32 0xC6B08AEE1D651760292AC4042EA653F2242C01B27C692BF2F796B0DD118556FD PUSH1 0x0 SHL PUSH3 0x166 PUSH1 0x20 SHL PUSH1 0x20 SHR JUMP JUMPDEST PUSH3 0x7A PUSH32 0x4E39C00EEFBBEE98D2CDED56BB95F7B6ED06A4E14A1E4D257E2F1F43A905666C PUSH1 0x0 SHL PUSH3 0x166 PUSH1 0x20 SHL PUSH1 0x20 SHR JUMP JUMPDEST PUSH3 0xAE PUSH32 0xAEC841ABFB4957AD012487614461E6CC819F606AA8DCA6A82A2AEB52739ED59F PUSH1 0x0 SHL PUSH3 0x166 PUSH1 0x20 SHL PUSH1 0x20 SHR JUMP JUMPDEST PUSH3 0xC3 PUSH1 0x0 DUP1 SHL CALLER PUSH3 0x169 PUSH1 0x20 SHL PUSH1 0x20 SHR JUMP JUMPDEST PUSH3 0xF7 PUSH32 0x3F0CECC29788BC24B8534DFB7B04D0F2CCE8CE746EEC94B4526B5031CEDF0A82 PUSH1 0x0 SHL PUSH3 0x166 PUSH1 0x20 SHL PUSH1 0x20 SHR JUMP JUMPDEST PUSH3 0x12B PUSH32 0x4098D1E1716964BC267DBC393B9EF5D166B4CCFD39B13C3456C564F44E2F0DFE PUSH1 0x0 SHL PUSH3 0x166 PUSH1 0x20 SHL PUSH1 0x20 SHR JUMP JUMPDEST PUSH3 0x160 PUSH32 0x176C2B761BFEB5DAB89F614B6C08152E31D9230394B3605EABF32249EA1C89A6 PUSH1 0x0 DUP1 SHL PUSH3 0x17F PUSH1 0x20 SHL PUSH1 0x20 SHR JUMP JUMPDEST PUSH3 0x361 JUMP JUMPDEST POP JUMP JUMPDEST PUSH3 0x17B DUP3 DUP3 PUSH3 0x1E1 PUSH1 0x20 SHL PUSH1 0x20 SHR JUMP JUMPDEST POP POP JUMP JUMPDEST DUP1 PUSH1 0x0 DUP1 DUP5 DUP2 MSTORE PUSH1 0x20 ADD SWAP1 DUP2 MSTORE PUSH1 0x20 ADD PUSH1 0x0 KECCAK256 PUSH1 0x2 ADD SLOAD DUP4 PUSH32 0xBD79B86FFE0AB8E8776151514217CD7CACD52C909F66475C3AF44E129F0B00FF PUSH1 0x40 MLOAD PUSH1 0x40 MLOAD DUP1 SWAP2 SUB SWAP1 LOG4 DUP1 PUSH1 0x0 DUP1 DUP5 DUP2 MSTORE PUSH1 0x20 ADD SWAP1 DUP2 MSTORE PUSH1 0x20 ADD PUSH1 0x0 KECCAK256 PUSH1 0x2 ADD DUP2 SWAP1 SSTORE POP POP POP JUMP JUMPDEST PUSH3 0x20F DUP2 PUSH1 0x0 DUP1 DUP6 DUP2 MSTORE PUSH1 0x20 ADD SWAP1 DUP2 MSTORE PUSH1 0x20 ADD PUSH1 0x0 KECCAK256 PUSH1 0x0 ADD PUSH3 0x284 PUSH1 0x20 SHL PUSH3 0x190C OR SWAP1 SWAP2 SWAP1 PUSH1 0x20 SHR JUMP JUMPDEST ISZERO PUSH3 0x280 JUMPI PUSH3 0x225 PUSH3 0x2BC PUSH1 0x20 SHL PUSH1 0x20 SHR JUMP JUMPDEST PUSH20 0xFFFFFFFFFFFFFFFFFFFFFFFFFFFFFFFFFFFFFFFF AND DUP2 PUSH20 0xFFFFFFFFFFFFFFFFFFFFFFFFFFFFFFFFFFFFFFFF AND DUP4 PUSH32 0x2F8788117E7EFF1D82E926EC794901D17C78024A50270940304540A733656F0D PUSH1 0x40 MLOAD PUSH1 0x40 MLOAD DUP1 SWAP2 SUB SWAP1 LOG4 JUMPDEST POP POP JUMP JUMPDEST PUSH1 0x0 PUSH3 0x2B4 DUP4 PUSH1 0x0 ADD DUP4 PUSH20 0xFFFFFFFFFFFFFFFFFFFFFFFFFFFFFFFFFFFFFFFF AND PUSH1 0x0 SHL PUSH3 0x2C4 PUSH1 0x20 SHL PUSH1 0x20 SHR JUMP JUMPDEST SWAP1 POP SWAP3 SWAP2 POP POP JUMP JUMPDEST PUSH1 0x0 CALLER SWAP1 POP SWAP1 JUMP JUMPDEST PUSH1 0x0 PUSH3 0x2D8 DUP4 DUP4 PUSH3 0x33E PUSH1 0x20 SHL PUSH1 0x20 SHR JUMP JUMPDEST PUSH3 0x333 JUMPI DUP3 PUSH1 0x0 ADD DUP3 SWAP1 DUP1 PUSH1 0x1 DUP2 SLOAD ADD DUP1 DUP3 SSTORE DUP1 SWAP2 POP POP PUSH1 0x1 SWAP1 SUB SWAP1 PUSH1 0x0 MSTORE PUSH1 0x20 PUSH1 0x0 KECCAK256 ADD PUSH1 0x0 SWAP1 SWAP2 SWAP1 SWAP2 SWAP1 SWAP2 POP SSTORE DUP3 PUSH1 0x0 ADD DUP1 SLOAD SWAP1 POP DUP4 PUSH1 0x1 ADD PUSH1 0x0 DUP5 DUP2 MSTORE PUSH1 0x20 ADD SWAP1 DUP2 MSTORE PUSH1 0x20 ADD PUSH1 0x0 KECCAK256 DUP2 SWAP1 SSTORE POP PUSH1 0x1 SWAP1 POP PUSH3 0x338 JUMP JUMPDEST PUSH1 0x0 SWAP1 POP JUMPDEST SWAP3 SWAP2 POP POP JUMP JUMPDEST PUSH1 0x0 DUP1 DUP4 PUSH1 0x1 ADD PUSH1 0x0 DUP5 DUP2 MSTORE PUSH1 0x20 ADD SWAP1 DUP2 MSTORE PUSH1 0x20 ADD PUSH1 0x0 KECCAK256 SLOAD EQ ISZERO SWAP1 POP SWAP3 SWAP2 POP POP JUMP JUMPDEST PUSH2 0x1E20 DUP1 PUSH3 0x371 PUSH1 0x0 CODECOPY PUSH1 0x0 RETURN INVALID PUSH1 0x80 PUSH1 0x40 MSTORE CALLVALUE DUP1 ISZERO PUSH2 0x10 JUMPI PUSH1 0x0 DUP1 REVERT JUMPDEST POP PUSH1 0x4 CALLDATASIZE LT PUSH2 0x182 JUMPI PUSH1 0x0 CALLDATALOAD PUSH1 0xE0 SHR DUP1 PUSH4 0x8BAD0C0A GT PUSH2 0xD8 JUMPI DUP1 PUSH4 0xA3183701 GT PUSH2 0x8C JUMPI DUP1 PUSH4 0xDD8755F2 GT PUSH2 0x66 JUMPI DUP1 PUSH4 0xDD8755F2 EQ PUSH2 0x69B JUMPI DUP1 PUSH4 0xDE0EF188 EQ PUSH2 0x6DF JUMPI DUP1 PUSH4 0xFB0CEB04 EQ PUSH2 0x70D JUMPI PUSH2 0x182 JUMP JUMPDEST DUP1 PUSH4 0xA3183701 EQ PUSH2 0x5BF JUMPI DUP1 PUSH4 0xCA15C873 EQ PUSH2 0x60B JUMPI DUP1 PUSH4 0xD547741F EQ PUSH2 0x64D JUMPI PUSH2 0x182 JUMP JUMPDEST DUP1 PUSH4 0x91D14854 GT PUSH2 0xBD JUMPI DUP1 PUSH4 0x91D14854 EQ PUSH2 0x4F1 JUMPI DUP1 PUSH4 0x93FA4915 EQ PUSH2 0x555 JUMPI DUP1 PUSH4 0xA217FDDF EQ PUSH2 0x5A1 JUMPI PUSH2 0x182 JUMP JUMPDEST DUP1 PUSH4 0x8BAD0C0A EQ PUSH2 0x485 JUMPI DUP1 PUSH4 0x9010D07C EQ PUSH2 0x48F JUMPI PUSH2 0x182 JUMP JUMPDEST DUP1 PUSH4 0x3F60D799 GT PUSH2 0x13A JUMPI DUP1 PUSH4 0x62F55112 GT PUSH2 0x114 JUMPI DUP1 PUSH4 0x62F55112 EQ PUSH2 0x3BD JUMPI DUP1 PUSH4 0x70480275 EQ PUSH2 0x3F5 JUMPI DUP1 PUSH4 0x77FBB663 EQ PUSH2 0x439 JUMPI PUSH2 0x182 JUMP JUMPDEST DUP1 PUSH4 0x3F60D799 EQ PUSH2 0x319 JUMPI DUP1 PUSH4 0x46EEE1C4 EQ PUSH2 0x337 JUMPI DUP1 PUSH4 0x5DE5C212 EQ PUSH2 0x379 JUMPI PUSH2 0x182 JUMP JUMPDEST DUP1 PUSH4 0x24D7806C GT PUSH2 0x16B JUMPI DUP1 PUSH4 0x24D7806C EQ PUSH2 0x223 JUMPI DUP1 PUSH4 0x2F2FF15D EQ PUSH2 0x27D JUMPI DUP1 PUSH4 0x36568ABE EQ PUSH2 0x2CB JUMPI PUSH2 0x182 JUMP JUMPDEST DUP1 PUSH4 0x44AD7BE EQ PUSH2 0x187 JUMPI DUP1 PUSH4 0x248A9CA3 EQ PUSH2 0x1E1 JUMPI JUMPDEST PUSH1 0x0 DUP1 REVERT JUMPDEST PUSH2 0x1C9 PUSH1 0x4 DUP1 CALLDATASIZE SUB PUSH1 0x20 DUP2 LT ISZERO PUSH2 0x19D JUMPI PUSH1 0x0 DUP1 REVERT JUMPDEST DUP2 ADD SWAP1 DUP1 DUP1 CALLDATALOAD PUSH20 0xFFFFFFFFFFFFFFFFFFFFFFFFFFFFFFFFFFFFFFFF AND SWAP1 PUSH1 0x20 ADD SWAP1 SWAP3 SWAP2 SWAP1 POP POP POP PUSH2 0x759 JUMP JUMPDEST PUSH1 0x40 MLOAD DUP1 DUP3 ISZERO ISZERO DUP2 MSTORE PUSH1 0x20 ADD SWAP2 POP POP PUSH1 0x40 MLOAD DUP1 SWAP2 SUB SWAP1 RETURN JUMPDEST PUSH2 0x20D PUSH1 0x4 DUP1 CALLDATASIZE SUB PUSH1 0x20 DUP2 LT ISZERO PUSH2 0x1F7 JUMPI PUSH1 0x0 DUP1 REVERT JUMPDEST DUP2 ADD SWAP1 DUP1 DUP1 CALLDATALOAD SWAP1 PUSH1 0x20 ADD SWAP1 SWAP3 SWAP2 SWAP1 POP POP POP PUSH2 0x810 JUMP JUMPDEST PUSH1 0x40 MLOAD DUP1 DUP3 DUP2 MSTORE PUSH1 0x20 ADD SWAP2 POP POP PUSH1 0x40 MLOAD DUP1 SWAP2 SUB SWAP1 RETURN JUMPDEST PUSH2 0x265 PUSH1 0x4 DUP1 CALLDATASIZE SUB PUSH1 0x20 DUP2 LT ISZERO PUSH2 0x239 JUMPI PUSH1 0x0 DUP1 REVERT JUMPDEST DUP2 ADD SWAP1 DUP1 DUP1 CALLDATALOAD PUSH20 0xFFFFFFFFFFFFFFFFFFFFFFFFFFFFFFFFFFFFFFFF AND SWAP1 PUSH1 0x20 ADD SWAP1 SWAP3 SWAP2 SWAP1 POP POP POP PUSH2 0x82F JUMP JUMPDEST PUSH1 0x40 MLOAD DUP1 DUP3 ISZERO ISZERO DUP2 MSTORE PUSH1 0x20 ADD SWAP2 POP POP PUSH1 0x40 MLOAD DUP1 SWAP2 SUB SWAP1 RETURN JUMPDEST PUSH2 0x2C9 PUSH1 0x4 DUP1 CALLDATASIZE SUB PUSH1 0x40 DUP2 LT ISZERO PUSH2 0x293 JUMPI PUSH1 0x0 DUP1 REVERT JUMPDEST DUP2 ADD SWAP1 DUP1 DUP1 CALLDATALOAD SWAP1 PUSH1 0x20 ADD SWAP1 SWAP3 SWAP2 SWAP1 DUP1 CALLDATALOAD PUSH20 0xFFFFFFFFFFFFFFFFFFFFFFFFFFFFFFFFFFFFFFFF AND SWAP1 PUSH1 0x20 ADD SWAP1 SWAP3 SWAP2 SWAP1 POP POP POP PUSH2 0x8C9 JUMP JUMPDEST STOP JUMPDEST PUSH2 0x317 PUSH1 0x4 DUP1 CALLDATASIZE SUB PUSH1 0x40 DUP2 LT ISZERO PUSH2 0x2E1 JUMPI PUSH1 0x0 DUP1 REVERT JUMPDEST DUP2 ADD SWAP1 DUP1 DUP1 CALLDATALOAD SWAP1 PUSH1 0x20 ADD SWAP1 SWAP3 SWAP2 SWAP1 DUP1 CALLDATALOAD PUSH20 0xFFFFFFFFFFFFFFFFFFFFFFFFFFFFFFFFFFFFFFFF AND SWAP1 PUSH1 0x20 ADD SWAP1 SWAP3 SWAP2 SWAP1 POP POP POP PUSH2 0x952 JUMP JUMPDEST STOP JUMPDEST PUSH2 0x321 PUSH2 0x9EB JUMP JUMPDEST PUSH1 0x40 MLOAD DUP1 DUP3 DUP2 MSTORE PUSH1 0x20 ADD SWAP2 POP POP PUSH1 0x40 MLOAD DUP1 SWAP2 SUB SWAP1 RETURN JUMPDEST PUSH2 0x363 PUSH1 0x4 DUP1 CALLDATASIZE SUB PUSH1 0x20 DUP2 LT ISZERO PUSH2 0x34D JUMPI PUSH1 0x0 DUP1 REVERT JUMPDEST DUP2 ADD SWAP1 DUP1 DUP1 CALLDATALOAD SWAP1 PUSH1 0x20 ADD SWAP1 SWAP3 SWAP2 SWAP1 POP POP POP PUSH2 0xA0F JUMP JUMPDEST PUSH1 0x40 MLOAD DUP1 DUP3 DUP2 MSTORE PUSH1 0x20 ADD SWAP2 POP POP PUSH1 0x40 MLOAD DUP1 SWAP2 SUB SWAP1 RETURN JUMPDEST PUSH2 0x3BB PUSH1 0x4 DUP1 CALLDATASIZE SUB PUSH1 0x20 DUP2 LT ISZERO PUSH2 0x38F JUMPI PUSH1 0x0 DUP1 REVERT JUMPDEST DUP2 ADD SWAP1 DUP1 DUP1 CALLDATALOAD PUSH20 0xFFFFFFFFFFFFFFFFFFFFFFFFFFFFFFFFFFFFFFFF AND SWAP1 PUSH1 0x20 ADD SWAP1 SWAP3 SWAP2 SWAP1 POP POP POP PUSH2 0xAB3 JUMP JUMPDEST STOP JUMPDEST PUSH2 0x3F3 PUSH1 0x4 DUP1 CALLDATASIZE SUB PUSH1 0x40 DUP2 LT ISZERO PUSH2 0x3D3 JUMPI PUSH1 0x0 DUP1 REVERT JUMPDEST DUP2 ADD SWAP1 DUP1 DUP1 CALLDATALOAD SWAP1 PUSH1 0x20 ADD SWAP1 SWAP3 SWAP2 SWAP1 DUP1 CALLDATALOAD SWAP1 PUSH1 0x20 ADD SWAP1 SWAP3 SWAP2 SWAP1 POP POP POP PUSH2 0xCE7 JUMP JUMPDEST STOP JUMPDEST PUSH2 0x437 PUSH1 0x4 DUP1 CALLDATASIZE SUB PUSH1 0x20 DUP2 LT ISZERO PUSH2 0x40B JUMPI PUSH1 0x0 DUP1 REVERT JUMPDEST DUP2 ADD SWAP1 DUP1 DUP1 CALLDATALOAD PUSH20 0xFFFFFFFFFFFFFFFFFFFFFFFFFFFFFFFFFFFFFFFF AND SWAP1 PUSH1 0x20 ADD SWAP1 SWAP3 SWAP2 SWAP1 POP POP POP PUSH2 0xFE7 JUMP JUMPDEST STOP JUMPDEST PUSH2 0x46F PUSH1 0x4 DUP1 CALLDATASIZE SUB PUSH1 0x40 DUP2 LT ISZERO PUSH2 0x44F JUMPI PUSH1 0x0 DUP1 REVERT JUMPDEST DUP2 ADD SWAP1 DUP1 DUP1 CALLDATALOAD SWAP1 PUSH1 0x20 ADD SWAP1 SWAP3 SWAP2 SWAP1 DUP1 CALLDATALOAD SWAP1 PUSH1 0x20 ADD SWAP1 SWAP3 SWAP2 SWAP1 POP POP POP PUSH2 0x11FE JUMP JUMPDEST PUSH1 0x40 MLOAD DUP1 DUP3 DUP2 MSTORE PUSH1 0x20 ADD SWAP2 POP POP PUSH1 0x40 MLOAD DUP1 SWAP2 SUB SWAP1 RETURN JUMPDEST PUSH2 0x48D PUSH2 0x1424 JUMP JUMPDEST STOP JUMPDEST PUSH2 0x4C5 PUSH1 0x4 DUP1 CALLDATASIZE SUB PUSH1 0x40 DUP2 LT ISZERO PUSH2 0x4A5 JUMPI PUSH1 0x0 DUP1 REVERT JUMPDEST DUP2 ADD SWAP1 DUP1 DUP1 CALLDATALOAD SWAP1 PUSH1 0x20 ADD SWAP1 SWAP3 SWAP2 SWAP1 DUP1 CALLDATALOAD SWAP1 PUSH1 0x20 ADD SWAP1 SWAP3 SWAP2 SWAP1 POP POP POP PUSH2 0x14B7 JUMP JUMPDEST PUSH1 0x40 MLOAD DUP1 DUP3 PUSH20 0xFFFFFFFFFFFFFFFFFFFFFFFFFFFFFFFFFFFFFFFF AND DUP2 MSTORE PUSH1 0x20 ADD SWAP2 POP POP PUSH1 0x40 MLOAD DUP1 SWAP2 SUB SWAP1 RETURN JUMPDEST PUSH2 0x53D PUSH1 0x4 DUP1 CALLDATASIZE SUB PUSH1 0x40 DUP2 LT ISZERO PUSH2 0x507 JUMPI PUSH1 0x0 DUP1 REVERT JUMPDEST DUP2 ADD SWAP1 DUP1 DUP1 CALLDATALOAD SWAP1 PUSH1 0x20 ADD SWAP1 SWAP3 SWAP2 SWAP1 DUP1 CALLDATALOAD PUSH20 0xFFFFFFFFFFFFFFFFFFFFFFFFFFFFFFFFFFFFFFFF AND SWAP1 PUSH1 0x20 ADD SWAP1 SWAP3 SWAP2 SWAP1 POP POP POP PUSH2 0x14E8 JUMP JUMPDEST PUSH1 0x40 MLOAD DUP1 DUP3 ISZERO ISZERO DUP2 MSTORE PUSH1 0x20 ADD SWAP2 POP POP PUSH1 0x40 MLOAD DUP1 SWAP2 SUB SWAP1 RETURN JUMPDEST PUSH2 0x58B PUSH1 0x4 DUP1 CALLDATASIZE SUB PUSH1 0x40 DUP2 LT ISZERO PUSH2 0x56B JUMPI PUSH1 0x0 DUP1 REVERT JUMPDEST DUP2 ADD SWAP1 DUP1 DUP1 CALLDATALOAD SWAP1 PUSH1 0x20 ADD SWAP1 SWAP3 SWAP2 SWAP1 DUP1 CALLDATALOAD SWAP1 PUSH1 0x20 ADD SWAP1 SWAP3 SWAP2 SWAP1 POP POP POP PUSH2 0x1519 JUMP JUMPDEST PUSH1 0x40 MLOAD DUP1 DUP3 DUP2 MSTORE PUSH1 0x20 ADD SWAP2 POP POP PUSH1 0x40 MLOAD DUP1 SWAP2 SUB SWAP1 RETURN JUMPDEST PUSH2 0x5A9 PUSH2 0x15CC JUMP JUMPDEST PUSH1 0x40 MLOAD DUP1 DUP3 DUP2 MSTORE PUSH1 0x20 ADD SWAP2 POP POP PUSH1 0x40 MLOAD DUP1 SWAP2 SUB SWAP1 RETURN JUMPDEST PUSH2 0x5F5 PUSH1 0x4 DUP1 CALLDATASIZE SUB PUSH1 0x40 DUP2 LT ISZERO PUSH2 0x5D5 JUMPI PUSH1 0x0 DUP1 REVERT JUMPDEST DUP2 ADD SWAP1 DUP1 DUP1 CALLDATALOAD SWAP1 PUSH1 0x20 ADD SWAP1 SWAP3 SWAP2 SWAP1 DUP1 CALLDATALOAD SWAP1 PUSH1 0x20 ADD SWAP1 SWAP3 SWAP2 SWAP1 POP POP POP PUSH2 0x15D3 JUMP JUMPDEST PUSH1 0x40 MLOAD DUP1 DUP3 DUP2 MSTORE PUSH1 0x20 ADD SWAP2 POP POP PUSH1 0x40 MLOAD DUP1 SWAP2 SUB SWAP1 RETURN JUMPDEST PUSH2 0x637 PUSH1 0x4 DUP1 CALLDATASIZE SUB PUSH1 0x20 DUP2 LT ISZERO PUSH2 0x621 JUMPI PUSH1 0x0 DUP1 REVERT JUMPDEST DUP2 ADD SWAP1 DUP1 DUP1 CALLDATALOAD SWAP1 PUSH1 0x20 ADD SWAP1 SWAP3 SWAP2 SWAP1 POP POP POP PUSH2 0x15F8 JUMP JUMPDEST PUSH1 0x40 MLOAD DUP1 DUP3 DUP2 MSTORE PUSH1 0x20 ADD SWAP2 POP POP PUSH1 0x40 MLOAD DUP1 SWAP2 SUB SWAP1 RETURN JUMPDEST PUSH2 0x699 PUSH1 0x4 DUP1 CALLDATASIZE SUB PUSH1 0x40 DUP2 LT ISZERO PUSH2 0x663 JUMPI PUSH1 0x0 DUP1 REVERT JUMPDEST DUP2 ADD SWAP1 DUP1 DUP1 CALLDATALOAD SWAP1 PUSH1 0x20 ADD SWAP1 SWAP3 SWAP2 SWAP1 DUP1 CALLDATALOAD PUSH20 0xFFFFFFFFFFFFFFFFFFFFFFFFFFFFFFFFFFFFFFFF AND SWAP1 PUSH1 0x20 ADD SWAP1 SWAP3 SWAP2 SWAP1 POP POP POP PUSH2 0x161E JUMP JUMPDEST STOP JUMPDEST PUSH2 0x6DD PUSH1 0x4 DUP1 CALLDATASIZE SUB PUSH1 0x20 DUP2 LT ISZERO PUSH2 0x6B1 JUMPI PUSH1 0x0 DUP1 REVERT JUMPDEST DUP2 ADD SWAP1 DUP1 DUP1 CALLDATALOAD PUSH20 0xFFFFFFFFFFFFFFFFFFFFFFFFFFFFFFFFFFFFFFFF AND SWAP1 PUSH1 0x20 ADD SWAP1 SWAP3 SWAP2 SWAP1 POP POP POP PUSH2 0x16A7 JUMP JUMPDEST STOP JUMPDEST PUSH2 0x70B PUSH1 0x4 DUP1 CALLDATASIZE SUB PUSH1 0x20 DUP2 LT ISZERO PUSH2 0x6F5 JUMPI PUSH1 0x0 DUP1 REVERT JUMPDEST DUP2 ADD SWAP1 DUP1 DUP1 CALLDATALOAD SWAP1 PUSH1 0x20 ADD SWAP1 SWAP3 SWAP2 SWAP1 POP POP POP PUSH2 0x18DB JUMP JUMPDEST STOP JUMPDEST PUSH2 0x743 PUSH1 0x4 DUP1 CALLDATASIZE SUB PUSH1 0x40 DUP2 LT ISZERO PUSH2 0x723 JUMPI PUSH1 0x0 DUP1 REVERT JUMPDEST DUP2 ADD SWAP1 DUP1 DUP1 CALLDATALOAD SWAP1 PUSH1 0x20 ADD SWAP1 SWAP3 SWAP2 SWAP1 DUP1 CALLDATALOAD SWAP1 PUSH1 0x20 ADD SWAP1 SWAP3 SWAP2 SWAP1 POP POP POP PUSH2 0x18DE JUMP JUMPDEST PUSH1 0x40 MLOAD DUP1 DUP3 DUP2 MSTORE PUSH1 0x20 ADD SWAP2 POP POP PUSH1 0x40 MLOAD DUP1 SWAP2 SUB SWAP1 RETURN JUMPDEST PUSH1 0x0 PUSH2 0x787 PUSH32 0xF54DE96A6B0F1E302AEE8D7F95829CEFAA70B030610ECB0951F2E4BBAF8CE0C9 PUSH1 0x0 SHL PUSH2 0x18DB JUMP JUMPDEST PUSH2 0x7B3 PUSH32 0xDAB20BA11BED5171BE2C2D093A3957BD914953271A869801B87BE44CF64523C2 PUSH1 0x0 SHL PUSH2 0x18DB JUMP JUMPDEST PUSH2 0x7DF PUSH32 0xF5E03F50CE48FB20F632D63549EE11D9EC9348358F87D56206F2E23CC0D8A0E5 PUSH1 0x0 SHL PUSH2 0x18DB JUMP JUMPDEST PUSH2 0x809 PUSH32 0x176C2B761BFEB5DAB89F614B6C08152E31D9230394B3605EABF32249EA1C89A6 DUP4 PUSH2 0x14E8 JUMP JUMPDEST SWAP1 POP SWAP2 SWAP1 POP JUMP JUMPDEST PUSH1 0x0 DUP1 PUSH1 0x0 DUP4 DUP2 MSTORE PUSH1 0x20 ADD SWAP1 DUP2 MSTORE PUSH1 0x20 ADD PUSH1 0x0 KECCAK256 PUSH1 0x2 ADD SLOAD SWAP1 POP SWAP2 SWAP1 POP JUMP JUMPDEST PUSH1 0x0 PUSH2 0x85D PUSH32 0x8623039A08ACD822DEE121268547E346D7E7BEA142DE92A38C0F94B4669E58E8 PUSH1 0x0 SHL PUSH2 0x18DB JUMP JUMPDEST PUSH2 0x889 PUSH32 0xCB806BB50A07D306FE4B316DFB44150591788AD097F80609103C5F7206ACF0E3 PUSH1 0x0 SHL PUSH2 0x18DB JUMP JUMPDEST PUSH2 0x8B5 PUSH32 0x9A2A3CC0E1C51A161FC2F8AE5596C51C35AB179EEAAD4B058BE813E61897B4C8 PUSH1 0x0 SHL PUSH2 0x18DB JUMP JUMPDEST PUSH2 0x8C2 PUSH1 0x0 DUP1 SHL DUP4 PUSH2 0x14E8 JUMP JUMPDEST SWAP1 POP SWAP2 SWAP1 POP JUMP JUMPDEST PUSH2 0x8EF PUSH1 0x0 DUP1 DUP5 DUP2 MSTORE PUSH1 0x20 ADD SWAP1 DUP2 MSTORE PUSH1 0x20 ADD PUSH1 0x0 KECCAK256 PUSH1 0x2 ADD SLOAD PUSH2 0x8EA PUSH2 0x193C JUMP JUMPDEST PUSH2 0x14E8 JUMP JUMPDEST PUSH2 0x944 JUMPI PUSH1 0x40 MLOAD PUSH32 0x8C379A000000000000000000000000000000000000000000000000000000000 DUP2 MSTORE PUSH1 0x4 ADD DUP1 DUP1 PUSH1 0x20 ADD DUP3 DUP2 SUB DUP3 MSTORE PUSH1 0x2F DUP2 MSTORE PUSH1 0x20 ADD DUP1 PUSH2 0x1D2B PUSH1 0x2F SWAP2 CODECOPY PUSH1 0x40 ADD SWAP2 POP POP PUSH1 0x40 MLOAD DUP1 SWAP2 SUB SWAP1 REVERT JUMPDEST PUSH2 0x94E DUP3 DUP3 PUSH2 0x1944 JUMP JUMPDEST POP POP JUMP JUMPDEST PUSH2 0x95A PUSH2 0x193C JUMP JUMPDEST PUSH20 0xFFFFFFFFFFFFFFFFFFFFFFFFFFFFFFFFFFFFFFFF AND DUP2 PUSH20 0xFFFFFFFFFFFFFFFFFFFFFFFFFFFFFFFFFFFFFFFF AND EQ PUSH2 0x9DD JUMPI PUSH1 0x40 MLOAD PUSH32 0x8C379A000000000000000000000000000000000000000000000000000000000 DUP2 MSTORE PUSH1 0x4 ADD DUP1 DUP1 PUSH1 0x20 ADD DUP3 DUP2 SUB DUP3 MSTORE PUSH1 0x2F DUP2 MSTORE PUSH1 0x20 ADD DUP1 PUSH2 0x1DBC PUSH1 0x2F SWAP2 CODECOPY PUSH1 0x40 ADD SWAP2 POP POP PUSH1 0x40 MLOAD DUP1 SWAP2 SUB SWAP1 REVERT JUMPDEST PUSH2 0x9E7 DUP3 DUP3 PUSH2 0x19D7 JUMP JUMPDEST POP POP JUMP JUMPDEST PUSH32 0x176C2B761BFEB5DAB89F614B6C08152E31D9230394B3605EABF32249EA1C89A6 DUP2 JUMP JUMPDEST PUSH1 0x0 PUSH2 0xA3D PUSH32 0x503A16DA38E71E7BACE6FE1F99C69ADF154700B332F7356A846E033DEC9741DA PUSH1 0x0 SHL PUSH2 0x18DB JUMP JUMPDEST PUSH2 0xA69 PUSH32 0x2ED8D5FE9135677C477F8F3ECD7A4256F04A4FF301BBA1BD98F77B53B0F5AA50 PUSH1 0x0 SHL PUSH2 0x18DB JUMP JUMPDEST PUSH2 0xA95 PUSH32 0x11AA2427FC89ED6E6ED31A082AB8C6BA00ECAC83001D180FF9E562917CDC3387 PUSH1 0x0 SHL PUSH2 0x18DB JUMP JUMPDEST PUSH1 0x2 PUSH1 0x0 DUP4 DUP2 MSTORE PUSH1 0x20 ADD SWAP1 DUP2 MSTORE PUSH1 0x20 ADD PUSH1 0x0 KECCAK256 DUP1 SLOAD SWAP1 POP SWAP1 POP SWAP2 SWAP1 POP JUMP JUMPDEST PUSH2 0xADF PUSH32 0xE77A5E54C196EA29DC309E2F68C4223DAF1968DE80ADC5A2AC702BF5AB9C79E PUSH1 0x0 SHL PUSH2 0x18DB JUMP JUMPDEST PUSH2 0xB0B PUSH32 0xE9F980434A095784833A291A073CDB6A41AB9199099578DB1D3341ACD44A2DE4 PUSH1 0x0 SHL PUSH2 0x18DB JUMP JUMPDEST PUSH2 0xB37 PUSH32 0x9595B610FD1B9C919129DEA5DDFE638C65600694E2CE37D9422F767F67C136EC PUSH1 0x0 SHL PUSH2 0x18DB JUMP JUMPDEST PUSH2 0xB63 PUSH32 0x78D0F1E7604B8B03FC1F985B1F847A1C7FFD01321438D1E4BD201DC1078A72A8 PUSH1 0x0 SHL PUSH2 0x18DB JUMP JUMPDEST PUSH2 0xB6C CALLER PUSH2 0x82F JUMP JUMPDEST PUSH2 0xBDE JUMPI PUSH1 0x40 MLOAD PUSH32 0x8C379A000000000000000000000000000000000000000000000000000000000 DUP2 MSTORE PUSH1 0x4 ADD DUP1 DUP1 PUSH1 0x20 ADD DUP3 DUP2 SUB DUP3 MSTORE PUSH1 0x15 DUP2 MSTORE PUSH1 0x20 ADD DUP1 PUSH32 0x5265737472696374656420746F2061646D696E732E0000000000000000000000 DUP2 MSTORE POP PUSH1 0x20 ADD SWAP2 POP POP PUSH1 0x40 MLOAD DUP1 SWAP2 SUB SWAP1 REVERT JUMPDEST PUSH2 0xC0A PUSH32 0x429B3ECF8C1DA568A2089C011FBEED3678BF23E259FD14668E6FBFEF767FE468 PUSH1 0x0 SHL PUSH2 0x18DB JUMP JUMPDEST PUSH2 0xC36 PUSH32 0x33B13FA1064CCC6C9AD4D7776ECEF9AEC9835A1D8F0C6150CD947ABD1899CD5 PUSH1 0x0 SHL PUSH2 0x18DB JUMP JUMPDEST PUSH2 0xC62 PUSH32 0xF97011770CD3EEBB1618366D789416BA95163A626F368CA4383DFFC1952B3C76 PUSH1 0x0 SHL PUSH2 0x18DB JUMP JUMPDEST PUSH2 0xC8E PUSH32 0x610617CE496B0C0D0459B71C9C95724872C5B0252C78F630FF2C583C044F22D7 PUSH1 0x0 SHL PUSH2 0x18DB JUMP JUMPDEST PUSH2 0xCBA PUSH32 0xB934982A5D13E5DE7749DDCB19A0D3E46082F0724FE020FB64B00BC5BA3D4A5F PUSH1 0x0 SHL PUSH2 0x18DB JUMP JUMPDEST PUSH2 0xCE4 PUSH32 0x176C2B761BFEB5DAB89F614B6C08152E31D9230394B3605EABF32249EA1C89A6 DUP3 PUSH2 0x161E JUMP JUMPDEST POP JUMP JUMPDEST PUSH2 0xD13 PUSH32 0xB68984996296AD029CF1C0A5F1A0DBE3B4C1CC9783E3496AB762570E9311A54E PUSH1 0x0 SHL PUSH2 0x18DB JUMP JUMPDEST PUSH2 0xD3F PUSH32 0xCD8329A6919154E0B467C3C10A069C8C734098C58A236F23F9CEC2F183E0561E PUSH1 0x0 SHL PUSH2 0x18DB JUMP JUMPDEST PUSH2 0xD6B PUSH32 0x407A553C794813DFFD15EC66138CBCB88CF43CF000721BA905F91C17106A2201 PUSH1 0x0 SHL PUSH2 0x18DB JUMP JUMPDEST PUSH2 0xD97 PUSH32 0x1494819D655FDF72B94A9FF2C059CE92BDF5A1D1E8793979F69782874FE83130 PUSH1 0x0 SHL PUSH2 0x18DB JUMP JUMPDEST PUSH2 0xDA0 CALLER PUSH2 0x759 JUMP JUMPDEST DUP1 PUSH2 0xDB0 JUMPI POP PUSH2 0xDAF CALLER PUSH2 0x82F JUMP JUMPDEST JUMPDEST PUSH2 0xE05 JUMPI PUSH1 0x40 MLOAD PUSH32 0x8C379A000000000000000000000000000000000000000000000000000000000 DUP2 MSTORE PUSH1 0x4 ADD DUP1 DUP1 PUSH1 0x20 ADD DUP3 DUP2 SUB DUP3 MSTORE PUSH1 0x32 DUP2 MSTORE PUSH1 0x20 ADD DUP1 PUSH2 0x1D5A PUSH1 0x32 SWAP2 CODECOPY PUSH1 0x40 ADD SWAP2 POP POP PUSH1 0x40 MLOAD DUP1 SWAP2 SUB SWAP1 REVERT JUMPDEST PUSH2 0xE31 PUSH32 0x8CA6475829765540AF2C1B59EE2D814B5DD433CF52800D812F9E6774B55EB376 PUSH1 0x0 SHL PUSH2 0x18DB JUMP JUMPDEST PUSH2 0xE5D PUSH32 0x920E320C5254FCF4049309D9897D4BC88721355EE56CFA7E51D84D1950D3BD07 PUSH1 0x0 SHL PUSH2 0x18DB JUMP JUMPDEST PUSH2 0xE89 PUSH32 0xAD4F78A587A01DE431BCEBB6A5C73627D8D338A654D65BC681F544B18EF87FE4 PUSH1 0x0 SHL PUSH2 0x18DB JUMP JUMPDEST DUP1 PUSH1 0x1 PUSH1 0x0 DUP5 DUP2 MSTORE PUSH1 0x20 ADD SWAP1 DUP2 MSTORE PUSH1 0x20 ADD PUSH1 0x0 KECCAK256 PUSH1 0x0 TIMESTAMP DUP2 MSTORE PUSH1 0x20 ADD SWAP1 DUP2 MSTORE PUSH1 0x20 ADD PUSH1 0x0 KECCAK256 DUP2 SWAP1 SSTORE POP PUSH2 0xEDE PUSH32 0xDBF86B1EC5755CAA9EBFE27E46B4413982FF59FF910F42A487B0EEDFF95E364B PUSH1 0x0 SHL PUSH2 0x18DB JUMP JUMPDEST PUSH2 0xF0A PUSH32 0x2D16D3E857355920D0623BDD93CC0D23AD3CCD45E0DF5A75D7BBFBABE13741DF PUSH1 0x0 SHL PUSH2 0x18DB JUMP JUMPDEST PUSH1 0x2 PUSH1 0x0 DUP4 DUP2 MSTORE PUSH1 0x20 ADD SWAP1 DUP2 MSTORE PUSH1 0x20 ADD PUSH1 0x0 KECCAK256 TIMESTAMP SWAP1 DUP1 PUSH1 0x1 DUP2 SLOAD ADD DUP1 DUP3 SSTORE DUP1 SWAP2 POP POP PUSH1 0x1 SWAP1 SUB SWAP1 PUSH1 0x0 MSTORE PUSH1 0x20 PUSH1 0x0 KECCAK256 ADD PUSH1 0x0 SWAP1 SWAP2 SWAP1 SWAP2 SWAP1 SWAP2 POP SSTORE PUSH2 0xF70 PUSH32 0xFAC8D8CDACD09A6C65B89771FF88B2A5673371A4BE79AB262AF1669A31B618B4 PUSH1 0x0 SHL PUSH2 0x18DB JUMP JUMPDEST PUSH2 0xF9C PUSH32 0x3C48E8BD819E8B6DF826DC24C7AA9FE3D831B9B618C0B7B721052FFB026AED7F PUSH1 0x0 SHL PUSH2 0x18DB JUMP JUMPDEST PUSH32 0xBA11E319AEE26E7BBAC889432515BA301EC8F6D27BF6B94829C21A65C5F6FF25 DUP3 TIMESTAMP DUP4 PUSH1 0x40 MLOAD DUP1 DUP5 DUP2 MSTORE PUSH1 0x20 ADD DUP4 DUP2 MSTORE PUSH1 0x20 ADD DUP3 DUP2 MSTORE PUSH1 0x20 ADD SWAP4 POP POP POP POP PUSH1 0x40 MLOAD DUP1 SWAP2 SUB SWAP1 LOG1 POP POP JUMP JUMPDEST PUSH2 0x1013 PUSH32 0xE77A5E54C196EA29DC309E2F68C4223DAF1968DE80ADC5A2AC702BF5AB9C79E PUSH1 0x0 SHL PUSH2 0x18DB JUMP JUMPDEST PUSH2 0x103F PUSH32 0xE9F980434A095784833A291A073CDB6A41AB9199099578DB1D3341ACD44A2DE4 PUSH1 0x0 SHL PUSH2 0x18DB JUMP JUMPDEST PUSH2 0x106B PUSH32 0x9595B610FD1B9C919129DEA5DDFE638C65600694E2CE37D9422F767F67C136EC PUSH1 0x0 SHL PUSH2 0x18DB JUMP JUMPDEST PUSH2 0x1097 PUSH32 0x78D0F1E7604B8B03FC1F985B1F847A1C7FFD01321438D1E4BD201DC1078A72A8 PUSH1 0x0 SHL PUSH2 0x18DB JUMP JUMPDEST PUSH2 0x10A0 CALLER PUSH2 0x82F JUMP JUMPDEST PUSH2 0x1112 JUMPI PUSH1 0x40 MLOAD PUSH32 0x8C379A000000000000000000000000000000000000000000000000000000000 DUP2 MSTORE PUSH1 0x4 ADD DUP1 DUP1 PUSH1 0x20 ADD DUP3 DUP2 SUB DUP3 MSTORE PUSH1 0x15 DUP2 MSTORE PUSH1 0x20 ADD DUP1 PUSH32 0x5265737472696374656420746F2061646D696E732E0000000000000000000000 DUP2 MSTORE POP PUSH1 0x20 ADD SWAP2 POP POP PUSH1 0x40 MLOAD DUP1 SWAP2 SUB SWAP1 REVERT JUMPDEST PUSH2 0x113E PUSH32 0x429B3ECF8C1DA568A2089C011FBEED3678BF23E259FD14668E6FBFEF767FE468 PUSH1 0x0 SHL PUSH2 0x18DB JUMP JUMPDEST PUSH2 0x116A PUSH32 0x33B13FA1064CCC6C9AD4D7776ECEF9AEC9835A1D8F0C6150CD947ABD1899CD5 PUSH1 0x0 SHL PUSH2 0x18DB JUMP JUMPDEST PUSH2 0x1196 PUSH32 0xE22D29E131054F3C994F0D6D0E56B945C3B27D7D46BBA6051E5117DC2557A9CE PUSH1 0x0 SHL PUSH2 0x18DB JUMP JUMPDEST PUSH2 0x11C2 PUSH32 0x5D9D4E99A91272D9835F0344F013F5ECEDD68ADDB9FE76318CC5AB6CCC528AA7 PUSH1 0x0 SHL PUSH2 0x18DB JUMP JUMPDEST PUSH2 0x11EE PUSH32 0x779753CDB8855D295BA63B5E4FE53B52BF48C517A4F99D1E2B4BD54A790B952B PUSH1 0x0 SHL PUSH2 0x18DB JUMP JUMPDEST PUSH2 0x11FB PUSH1 0x0 DUP1 SHL DUP3 PUSH2 0x8C9 JUMP JUMPDEST POP JUMP JUMPDEST PUSH1 0x0 PUSH2 0x122C PUSH32 0x277C50936358732BCB7CE0411A22CBE9AB2337B20BD35E5DD5E1DA7A1F6E652E PUSH1 0x0 SHL PUSH2 0x18DB JUMP JUMPDEST PUSH2 0x1258 PUSH32 0xCC87F107EDF8D44825DCAB64E93C264D8E2E046B5BAB84D3729EBBAD781942C2 PUSH1 0x0 SHL PUSH2 0x18DB JUMP JUMPDEST PUSH2 0x1284 PUSH32 0x3BA42484AD8627222EB591CC7F5F41BC3E009DB7B608B17ADDE0ED502E9C760A PUSH1 0x0 SHL PUSH2 0x18DB JUMP JUMPDEST PUSH1 0x0 PUSH1 0x2 PUSH1 0x0 DUP6 DUP2 MSTORE PUSH1 0x20 ADD SWAP1 DUP2 MSTORE PUSH1 0x20 ADD PUSH1 0x0 KECCAK256 DUP1 SLOAD SWAP1 POP SWAP1 POP PUSH2 0x12CB PUSH32 0xF813AAD69BAC4A813ED915BC4DBAA09CBF71A2AF0D7C9A330736E2F36F0A0ED4 PUSH1 0x0 SHL PUSH2 0x18DB JUMP JUMPDEST PUSH2 0x12F7 PUSH32 0xC3CEFDF26052BB70F9DDB00DF44CC5BEB13DC5E2968F244D0F51BEADA13720D5 PUSH1 0x0 SHL PUSH2 0x18DB JUMP JUMPDEST PUSH1 0x0 DUP2 EQ DUP1 PUSH2 0x1306 JUMPI POP DUP3 DUP2 GT ISZERO JUMPDEST ISZERO PUSH2 0x136D JUMPI PUSH2 0x1337 PUSH32 0x2E33720CF25F6B8E1092B5A1BB96FB16002CEF3D8405D41A71C58AF31BE2CE88 PUSH1 0x0 SHL PUSH2 0x18DB JUMP JUMPDEST PUSH2 0x1363 PUSH32 0x9F30554B2AFE6C5AE770212B081F5DE25EC9DE1167A12C385BFFB04989C9E2C PUSH1 0x0 SHL PUSH2 0x18DB JUMP JUMPDEST PUSH1 0x0 SWAP2 POP POP PUSH2 0x141E JUMP JUMPDEST PUSH2 0x1399 PUSH32 0xD6E06438BB09AF04503F235AFEE5E843E740B935E191B28ECA427E01BDFAF85F PUSH1 0x0 SHL PUSH2 0x18DB JUMP JUMPDEST PUSH2 0x13C5 PUSH32 0xC902D63022B053C0C683C7861C39E35890EEFAF3707EEA062B6829CC7B187777 PUSH1 0x0 SHL PUSH2 0x18DB JUMP JUMPDEST PUSH2 0x13F1 PUSH32 0x6691175A989B65EB9BD39D4BC024718FBDC0D256B780C67CF49916D878E4A4B PUSH1 0x0 SHL PUSH2 0x18DB JUMP JUMPDEST PUSH1 0x2 PUSH1 0x0 DUP6 DUP2 MSTORE PUSH1 0x20 ADD SWAP1 DUP2 MSTORE PUSH1 0x20 ADD PUSH1 0x0 KECCAK256 DUP4 DUP2 SLOAD DUP2 LT PUSH2 0x140F JUMPI INVALID JUMPDEST SWAP1 PUSH1 0x0 MSTORE PUSH1 0x20 PUSH1 0x0 KECCAK256 ADD SLOAD SWAP2 POP POP JUMPDEST SWAP3 SWAP2 POP POP JUMP JUMPDEST PUSH2 0x1450 PUSH32 0x476652241D4761BD624A0C2555256FF09D5FB8C6084D631FE985EF14595F3D61 PUSH1 0x0 SHL PUSH2 0x18DB JUMP JUMPDEST PUSH2 0x147C PUSH32 0x622C26F9FEF51842B1A83C52FB48B055910186A93CAE8DE00B07E43937BEC610 PUSH1 0x0 SHL PUSH2 0x18DB JUMP JUMPDEST PUSH2 0x14A8 PUSH32 0x409301906A6A9C2144C18A65B7D89AEDD2FF8A4801F344B8C4C9BD1820C5B99 PUSH1 0x0 SHL PUSH2 0x18DB JUMP JUMPDEST PUSH2 0x14B5 PUSH1 0x0 DUP1 SHL CALLER PUSH2 0x952 JUMP JUMPDEST JUMP JUMPDEST PUSH1 0x0 PUSH2 0x14E0 DUP3 PUSH1 0x0 DUP1 DUP7 DUP2 MSTORE PUSH1 0x20 ADD SWAP1 DUP2 MSTORE PUSH1 0x20 ADD PUSH1 0x0 KECCAK256 PUSH1 0x0 ADD PUSH2 0x1A6A SWAP1 SWAP2 SWAP1 PUSH4 0xFFFFFFFF AND JUMP JUMPDEST SWAP1 POP SWAP3 SWAP2 POP POP JUMP JUMPDEST PUSH1 0x0 PUSH2 0x1511 DUP3 PUSH1 0x0 DUP1 DUP7 DUP2 MSTORE PUSH1 0x20 ADD SWAP1 DUP2 MSTORE PUSH1 0x20 ADD PUSH1 0x0 KECCAK256 PUSH1 0x0 ADD PUSH2 0x1A84 SWAP1 SWAP2 SWAP1 PUSH4 0xFFFFFFFF AND JUMP JUMPDEST SWAP1 POP SWAP3 SWAP2 POP POP JUMP JUMPDEST PUSH1 0x0 PUSH2 0x1547 PUSH32 0x3F18806E18D20DD0C20B1B0ACE60256D681454DD013CA49ECFB200390D8DDF88 PUSH1 0x0 SHL PUSH2 0x18DB JUMP JUMPDEST PUSH2 0x1573 PUSH32 0x6D00C549F3C0BDED4CDAE463341B651885E0FB498816F59BFD10568A1DDF9652 PUSH1 0x0 SHL PUSH2 0x18DB JUMP JUMPDEST PUSH2 0x159F PUSH32 0x8584091A725CC0C597289F1EDE5EAC9C8C2D5779C561D38D703684B79D22F7C1 PUSH1 0x0 SHL PUSH2 0x18DB JUMP JUMPDEST PUSH1 0x1 PUSH1 0x0 DUP5 DUP2 MSTORE PUSH1 0x20 ADD SWAP1 DUP2 MSTORE PUSH1 0x20 ADD PUSH1 0x0 KECCAK256 PUSH1 0x0 DUP4 DUP2 MSTORE PUSH1 0x20 ADD SWAP1 DUP2 MSTORE PUSH1 0x20 ADD PUSH1 0x0 KECCAK256 SLOAD SWAP1 POP SWAP3 SWAP2 POP POP JUMP JUMPDEST PUSH1 0x0 DUP1 SHL DUP2 JUMP JUMPDEST PUSH1 0x1 PUSH1 0x20 MSTORE DUP2 PUSH1 0x0 MSTORE PUSH1 0x40 PUSH1 0x0 KECCAK256 PUSH1 0x20 MSTORE DUP1 PUSH1 0x0 MSTORE PUSH1 0x40 PUSH1 0x0 KECCAK256 PUSH1 0x0 SWAP2 POP SWAP2 POP POP SLOAD DUP2 JUMP JUMPDEST PUSH1 0x0 PUSH2 0x1617 PUSH1 0x0 DUP1 DUP5 DUP2 MSTORE PUSH1 0x20 ADD SWAP1 DUP2 MSTORE PUSH1 0x20 ADD PUSH1 0x0 KECCAK256 PUSH1 0x0 ADD PUSH2 0x1AB4 JUMP JUMPDEST SWAP1 POP SWAP2 SWAP1 POP JUMP JUMPDEST PUSH2 0x1644 PUSH1 0x0 DUP1 DUP5 DUP2 MSTORE PUSH1 0x20 ADD SWAP1 DUP2 MSTORE PUSH1 0x20 ADD PUSH1 0x0 KECCAK256 PUSH1 0x2 ADD SLOAD PUSH2 0x163F PUSH2 0x193C JUMP JUMPDEST PUSH2 0x14E8 JUMP JUMPDEST PUSH2 0x1699 JUMPI PUSH1 0x40 MLOAD PUSH32 0x8C379A000000000000000000000000000000000000000000000000000000000 DUP2 MSTORE PUSH1 0x4 ADD DUP1 DUP1 PUSH1 0x20 ADD DUP3 DUP2 SUB DUP3 MSTORE PUSH1 0x30 DUP2 MSTORE PUSH1 0x20 ADD DUP1 PUSH2 0x1D8C PUSH1 0x30 SWAP2 CODECOPY PUSH1 0x40 ADD SWAP2 POP POP PUSH1 0x40 MLOAD DUP1 SWAP2 SUB SWAP1 REVERT JUMPDEST PUSH2 0x16A3 DUP3 DUP3 PUSH2 0x19D7 JUMP JUMPDEST POP POP JUMP JUMPDEST PUSH2 0x16D3 PUSH32 0xE77A5E54C196EA29DC309E2F68C4223DAF1968DE80ADC5A2AC702BF5AB9C79E PUSH1 0x0 SHL PUSH2 0x18DB JUMP JUMPDEST PUSH2 0x16FF PUSH32 0xE9F980434A095784833A291A073CDB6A41AB9199099578DB1D3341ACD44A2DE4 PUSH1 0x0 SHL PUSH2 0x18DB JUMP JUMPDEST PUSH2 0x172B PUSH32 0x9595B610FD1B9C919129DEA5DDFE638C65600694E2CE37D9422F767F67C136EC PUSH1 0x0 SHL PUSH2 0x18DB JUMP JUMPDEST PUSH2 0x1757 PUSH32 0x78D0F1E7604B8B03FC1F985B1F847A1C7FFD01321438D1E4BD201DC1078A72A8 PUSH1 0x0 SHL PUSH2 0x18DB JUMP JUMPDEST PUSH2 0x1760 CALLER PUSH2 0x82F JUMP JUMPDEST PUSH2 0x17D2 JUMPI PUSH1 0x40 MLOAD PUSH32 0x8C379A000000000000000000000000000000000000000000000000000000000 DUP2 MSTORE PUSH1 0x4 ADD DUP1 DUP1 PUSH1 0x20 ADD DUP3 DUP2 SUB DUP3 MSTORE PUSH1 0x15 DUP2 MSTORE PUSH1 0x20 ADD DUP1 PUSH32 0x5265737472696374656420746F2061646D696E732E0000000000000000000000 DUP2 MSTORE POP PUSH1 0x20 ADD SWAP2 POP POP PUSH1 0x40 MLOAD DUP1 SWAP2 SUB SWAP1 REVERT JUMPDEST PUSH2 0x17FE PUSH32 0x429B3ECF8C1DA568A2089C011FBEED3678BF23E259FD14668E6FBFEF767FE468 PUSH1 0x0 SHL PUSH2 0x18DB JUMP JUMPDEST PUSH2 0x182A PUSH32 0x33B13FA1064CCC6C9AD4D7776ECEF9AEC9835A1D8F0C6150CD947ABD1899CD5 PUSH1 0x0 SHL PUSH2 0x18DB JUMP JUMPDEST PUSH2 0x1856 PUSH32 0x5513E8EB426176372E83E140CADA4FA2DA0F8572DEE369B0C6C23B216DD0336E PUSH1 0x0 SHL PUSH2 0x18DB JUMP JUMPDEST PUSH2 0x1882 PUSH32 0x5B1D0C6A7147F51924E51F4F33B18C5A033C2652CBF52B128F85A628C0F5A527 PUSH1 0x0 SHL PUSH2 0x18DB JUMP JUMPDEST PUSH2 0x18AE PUSH32 0xEB3F27B671E7DCBF9A96657EDDDCE7D837B25AD448E7CA694624A31BBDF1DD17 PUSH1 0x0 SHL PUSH2 0x18DB JUMP JUMPDEST PUSH2 0x18D8 PUSH32 0x176C2B761BFEB5DAB89F614B6C08152E31D9230394B3605EABF32249EA1C89A6 DUP3 PUSH2 0x8C9 JUMP JUMPDEST POP JUMP JUMPDEST POP JUMP JUMPDEST PUSH1 0x2 PUSH1 0x20 MSTORE DUP2 PUSH1 0x0 MSTORE PUSH1 0x40 PUSH1 0x0 KECCAK256 DUP2 DUP2 SLOAD DUP2 LT PUSH2 0x18F7 JUMPI INVALID JUMPDEST SWAP1 PUSH1 0x0 MSTORE PUSH1 0x20 PUSH1 0x0 KECCAK256 ADD PUSH1 0x0 SWAP2 POP SWAP2 POP POP SLOAD DUP2 JUMP JUMPDEST PUSH1 0x0 PUSH2 0x1934 DUP4 PUSH1 0x0 ADD DUP4 PUSH20 0xFFFFFFFFFFFFFFFFFFFFFFFFFFFFFFFFFFFFFFFF AND PUSH1 0x0 SHL PUSH2 0x1AC9 JUMP JUMPDEST SWAP1 POP SWAP3 SWAP2 POP POP JUMP JUMPDEST PUSH1 0x0 CALLER SWAP1 POP SWAP1 JUMP JUMPDEST PUSH2 0x196B DUP2 PUSH1 0x0 DUP1 DUP6 DUP2 MSTORE PUSH1 0x20 ADD SWAP1 DUP2 MSTORE PUSH1 0x20 ADD PUSH1 0x0 KECCAK256 PUSH1 0x0 ADD PUSH2 0x190C SWAP1 SWAP2 SWAP1 PUSH4 0xFFFFFFFF AND JUMP JUMPDEST ISZERO PUSH2 0x19D3 JUMPI PUSH2 0x1978 PUSH2 0x193C JUMP JUMPDEST PUSH20 0xFFFFFFFFFFFFFFFFFFFFFFFFFFFFFFFFFFFFFFFF AND DUP2 PUSH20 0xFFFFFFFFFFFFFFFFFFFFFFFFFFFFFFFFFFFFFFFF AND DUP4 PUSH32 0x2F8788117E7EFF1D82E926EC794901D17C78024A50270940304540A733656F0D PUSH1 0x40 MLOAD PUSH1 0x40 MLOAD DUP1 SWAP2 SUB SWAP1 LOG4 JUMPDEST POP POP JUMP JUMPDEST PUSH2 0x19FE DUP2 PUSH1 0x0 DUP1 DUP6 DUP2 MSTORE PUSH1 0x20 ADD SWAP1 DUP2 MSTORE PUSH1 0x20 ADD PUSH1 0x0 KECCAK256 PUSH1 0x0 ADD PUSH2 0x1B39 SWAP1 SWAP2 SWAP1 PUSH4 0xFFFFFFFF AND JUMP JUMPDEST ISZERO PUSH2 0x1A66 JUMPI PUSH2 0x1A0B PUSH2 0x193C JUMP JUMPDEST PUSH20 0xFFFFFFFFFFFFFFFFFFFFFFFFFFFFFFFFFFFFFFFF AND DUP2 PUSH20 0xFFFFFFFFFFFFFFFFFFFFFFFFFFFFFFFFFFFFFFFF AND DUP4 PUSH32 0xF6391F5C32D9C69D2A47EA670B442974B53935D1EDC7FD64EB21E047A839171B PUSH1 0x40 MLOAD PUSH1 0x40 MLOAD DUP1 SWAP2 SUB SWAP1 LOG4 JUMPDEST POP POP JUMP JUMPDEST PUSH1 0x0 PUSH2 0x1A79 DUP4 PUSH1 0x0 ADD DUP4 PUSH2 0x1B69 JUMP JUMPDEST PUSH1 0x0 SHR SWAP1 POP SWAP3 SWAP2 POP POP JUMP JUMPDEST PUSH1 0x0 PUSH2 0x1AAC DUP4 PUSH1 0x0 ADD DUP4 PUSH20 0xFFFFFFFFFFFFFFFFFFFFFFFFFFFFFFFFFFFFFFFF AND PUSH1 0x0 SHL PUSH2 0x1BEC JUMP JUMPDEST SWAP1 POP SWAP3 SWAP2 POP POP JUMP JUMPDEST PUSH1 0x0 PUSH2 0x1AC2 DUP3 PUSH1 0x0 ADD PUSH2 0x1C0F JUMP JUMPDEST SWAP1 POP SWAP2 SWAP1 POP JUMP JUMPDEST PUSH1 0x0 PUSH2 0x1AD5 DUP4 DUP4 PUSH2 0x1BEC JUMP JUMPDEST PUSH2 0x1B2E JUMPI DUP3 PUSH1 0x0 ADD DUP3 SWAP1 DUP1 PUSH1 0x1 DUP2 SLOAD ADD DUP1 DUP3 SSTORE DUP1 SWAP2 POP POP PUSH1 0x1 SWAP1 SUB SWAP1 PUSH1 0x0 MSTORE PUSH1 0x20 PUSH1 0x0 KECCAK256 ADD PUSH1 0x0 SWAP1 SWAP2 SWAP1 SWAP2 SWAP1 SWAP2 POP SSTORE DUP3 PUSH1 0x0 ADD DUP1 SLOAD SWAP1 POP DUP4 PUSH1 0x1 ADD PUSH1 0x0 DUP5 DUP2 MSTORE PUSH1 0x20 ADD SWAP1 DUP2 MSTORE PUSH1 0x20 ADD PUSH1 0x0 KECCAK256 DUP2 SWAP1 SSTORE POP PUSH1 0x1 SWAP1 POP PUSH2 0x1B33 JUMP JUMPDEST PUSH1 0x0 SWAP1 POP JUMPDEST SWAP3 SWAP2 POP POP JUMP JUMPDEST PUSH1 0x0 PUSH2 0x1B61 DUP4 PUSH1 0x0 ADD DUP4 PUSH20 0xFFFFFFFFFFFFFFFFFFFFFFFFFFFFFFFFFFFFFFFF AND PUSH1 0x0 SHL PUSH2 0x1C20 JUMP JUMPDEST SWAP1 POP SWAP3 SWAP2 POP POP JUMP JUMPDEST PUSH1 0x0 DUP2 DUP4 PUSH1 0x0 ADD DUP1 SLOAD SWAP1 POP GT PUSH2 0x1BCA JUMPI PUSH1 0x40 MLOAD PUSH32 0x8C379A000000000000000000000000000000000000000000000000000000000 DUP2 MSTORE PUSH1 0x4 ADD DUP1 DUP1 PUSH1 0x20 ADD DUP3 DUP2 SUB DUP3 MSTORE PUSH1 0x22 DUP2 MSTORE PUSH1 0x20 ADD DUP1 PUSH2 0x1D09 PUSH1 0x22 SWAP2 CODECOPY PUSH1 0x40 ADD SWAP2 POP POP PUSH1 0x40 MLOAD DUP1 SWAP2 SUB SWAP1 REVERT JUMPDEST DUP3 PUSH1 0x0 ADD DUP3 DUP2 SLOAD DUP2 LT PUSH2 0x1BD9 JUMPI INVALID JUMPDEST SWAP1 PUSH1 0x0 MSTORE PUSH1 0x20 PUSH1 0x0 KECCAK256 ADD SLOAD SWAP1 POP SWAP3 SWAP2 POP POP JUMP JUMPDEST PUSH1 0x0 DUP1 DUP4 PUSH1 0x1 ADD PUSH1 0x0 DUP5 DUP2 MSTORE PUSH1 0x20 ADD SWAP1 DUP2 MSTORE PUSH1 0x20 ADD PUSH1 0x0 KECCAK256 SLOAD EQ ISZERO SWAP1 POP SWAP3 SWAP2 POP POP JUMP JUMPDEST PUSH1 0x0 DUP2 PUSH1 0x0 ADD DUP1 SLOAD SWAP1 POP SWAP1 POP SWAP2 SWAP1 POP JUMP JUMPDEST PUSH1 0x0 DUP1 DUP4 PUSH1 0x1 ADD PUSH1 0x0 DUP5 DUP2 MSTORE PUSH1 0x20 ADD SWAP1 DUP2 MSTORE PUSH1 0x20 ADD PUSH1 0x0 KECCAK256 SLOAD SWAP1 POP PUSH1 0x0 DUP2 EQ PUSH2 0x1CFC JUMPI PUSH1 0x0 PUSH1 0x1 DUP3 SUB SWAP1 POP PUSH1 0x0 PUSH1 0x1 DUP7 PUSH1 0x0 ADD DUP1 SLOAD SWAP1 POP SUB SWAP1 POP PUSH1 0x0 DUP7 PUSH1 0x0 ADD DUP3 DUP2 SLOAD DUP2 LT PUSH2 0x1C6B JUMPI INVALID JUMPDEST SWAP1 PUSH1 0x0 MSTORE PUSH1 0x20 PUSH1 0x0 KECCAK256 ADD SLOAD SWAP1 POP DUP1 DUP8 PUSH1 0x0 ADD DUP5 DUP2 SLOAD DUP2 LT PUSH2 0x1C88 JUMPI INVALID JUMPDEST SWAP1 PUSH1 0x0 MSTORE PUSH1 0x20 PUSH1 0x0 KECCAK256 ADD DUP2 SWAP1 SSTORE POP PUSH1 0x1 DUP4 ADD DUP8 PUSH1 0x1 ADD PUSH1 0x0 DUP4 DUP2 MSTORE PUSH1 0x20 ADD SWAP1 DUP2 MSTORE PUSH1 0x20 ADD PUSH1 0x0 KECCAK256 DUP2 SWAP1 SSTORE POP DUP7 PUSH1 0x0 ADD DUP1 SLOAD DUP1 PUSH2 0x1CC0 JUMPI INVALID JUMPDEST PUSH1 0x1 SWAP1 SUB DUP2 DUP2 SWAP1 PUSH1 0x0 MSTORE PUSH1 0x20 PUSH1 0x0 KECCAK256 ADD PUSH1 0x0 SWAP1 SSTORE SWAP1 SSTORE DUP7 PUSH1 0x1 ADD PUSH1 0x0 DUP8 DUP2 MSTORE PUSH1 0x20 ADD SWAP1 DUP2 MSTORE PUSH1 0x20 ADD PUSH1 0x0 KECCAK256 PUSH1 0x0 SWAP1 SSTORE PUSH1 0x1 SWAP5 POP POP POP POP POP PUSH2 0x1D02 JUMP JUMPDEST PUSH1 0x0 SWAP2 POP POP JUMPDEST SWAP3 SWAP2 POP POP JUMP INVALID GASLIMIT PUSH15 0x756D657261626C655365743A20696E PUSH5 0x6578206F75 PUSH21 0x206F6620626F756E6473416363657373436F6E7472 PUSH16 0x6C3A2073656E646572206D7573742062 PUSH6 0x20616E206164 PUSH14 0x696E20746F206772616E7453656E PUSH5 0x6572206D75 PUSH20 0x7420626520616E2041646D696E206F7220526570 PUSH16 0x7274657220746F207375626D69745661 PUSH13 0x7565416363657373436F6E7472 PUSH16 0x6C3A2073656E646572206D7573742062 PUSH6 0x20616E206164 PUSH14 0x696E20746F207265766F6B654163 PUSH4 0x65737343 PUSH16 0x6E74726F6C3A2063616E206F6E6C7920 PUSH19 0x656E6F756E636520726F6C657320666F722073 PUSH6 0x6C66A2646970 PUSH7 0x7358221220B2F2 0xDA LOG2 PUSH23 0x5ACC3D02BD3C3216C1F2182395680941168BF64E1586F4 0xBF CALLCODE MSTORE 0x1F PUSH5 0x736F6C6343 STOP SMOD STOP STOP CALLER "
        },
        "methodIdentifiers": {
          "DEFAULT_ADMIN_ROLE()": "a217fddf",
          "REPORTER_ROLE()": "3f60d799",
          "addAdmin(address)": "70480275",
          "addReporter(address)": "dd8755f2",
          "c_0xf503494c(bytes32)": "de0ef188",
          "getNewValueCountbyRequestId(uint256)": "46eee1c4",
          "getRoleAdmin(bytes32)": "248a9ca3",
          "getRoleMember(bytes32,uint256)": "9010d07c",
          "getRoleMemberCount(bytes32)": "ca15c873",
          "getTimestampbyRequestIDandIndex(uint256,uint256)": "77fbb663",
          "grantRole(bytes32,address)": "2f2ff15d",
          "hasRole(bytes32,address)": "91d14854",
          "isAdmin(address)": "24d7806c",
          "isReporter(address)": "044ad7be",
          "removeReporter(address)": "5de5c212",
          "renounceAdmin()": "8bad0c0a",
          "renounceRole(bytes32,address)": "36568abe",
          "retrieveData(uint256,uint256)": "93fa4915",
          "revokeRole(bytes32,address)": "d547741f",
          "submitValue(uint256,uint256)": "62f55112",
          "timestamps(uint256,uint256)": "fb0ceb04",
          "values(uint256,uint256)": "a3183701"
        }
      }
    }
  }
}