{
  "_format": "hh-sol-artifact-1",
  "contractName": "Migrations",
  "sourceName": "contracts/Migrations.sol",
  "abi": [
    {
      "inputs": [
        {
          "internalType": "bytes32",
          "name": "c__0xabb147e4",
          "type": "bytes32"
        }
      ],
      "name": "c_0xabb147e4",
      "outputs": [],
      "stateMutability": "pure",
      "type": "function"
    },
    {
      "inputs": [],
      "name": "last_completed_migration",
      "outputs": [
        {
          "internalType": "uint256",
          "name": "",
          "type": "uint256"
        }
      ],
      "stateMutability": "view",
      "type": "function"
    },
    {
      "inputs": [],
      "name": "owner",
      "outputs": [
        {
          "internalType": "address",
          "name": "",
          "type": "address"
        }
      ],
      "stateMutability": "view",
      "type": "function"
    },
    {
      "inputs": [
        {
          "internalType": "uint256",
          "name": "completed",
          "type": "uint256"
        }
      ],
      "name": "setCompleted",
      "outputs": [],
      "stateMutability": "nonpayable",
      "type": "function"
    }
  ],
  "bytecode": "0x6080604052336000806101000a81548173ffffffffffffffffffffffffffffffffffffffff021916908373ffffffffffffffffffffffffffffffffffffffff16021790555034801561005057600080fd5b506103cf806100606000396000f3fe608060405234801561001057600080fd5b506004361061004c5760003560e01c8063445df0ac146100515780638da5cb5b1461006f5780639d3cf043146100a3578063fdacd576146100d1575b600080fd5b6100596100ff565b6040518082815260200191505060405180910390f35b610077610105565b604051808273ffffffffffffffffffffffffffffffffffffffff16815260200191505060405180910390f35b6100cf600480360360208110156100b957600080fd5b8101908080359060200190929190505050610129565b005b6100fd600480360360208110156100e757600080fd5b810190808035906020019092919050505061012c565b005b60015481565b60008054906101000a900473ffffffffffffffffffffffffffffffffffffffff1681565b50565b6101587fd5046512d46e33a6845acffadfd1edae344fc32d651ce1ed6e342501296fe06060001b610129565b6101847fc04f4f02df9a30f356b5707c99e7334a580b79dba5132cfa7743f36350e390a360001b610129565b6101b07fccf584977502dca4873f0eccac42573699b8b625ce28d317cff93c64efa1315d60001b610129565b6101dc7f5ebc1168354748aac98338fbcf780960b1c7dff6c5744662d667250e39f5f63360001b610129565b60008054906101000a900473ffffffffffffffffffffffffffffffffffffffff1673ffffffffffffffffffffffffffffffffffffffff163373ffffffffffffffffffffffffffffffffffffffff1614610280576040517f08c379a00000000000000000000000000000000000000000000000000000000081526004018080602001828103825260338152602001806103676033913960400191505060405180910390fd5b6102ac7fd19a8f0f55452b58e34b7ca08928d8f205c8d8eebcf365651448b82ba5a786db60001b610129565b6102d87fa29403cd54b6214f491fcccf132a590a63fa3cd53e3c3b2733bfffdb3236b79060001b610129565b6103047ff45ce12012b9abd3ac6d8a616f43719db5528b3e70c7822796297a43ea8b1c9160001b610129565b6103307fec67cfe99587ece7204487993e407537d9b539167b13bf4a04026d257cb68ad260001b610129565b61035c7f7f15600e8540260d69357a6000cc99f6718a2dd33c27e526395b10e4373b383760001b610129565b806001819055505056fe546869732066756e6374696f6e206973207265737472696374656420746f2074686520636f6e74726163742773206f776e6572a264697066735822122075f73357b348e55ded006c27a1d006b3182a8d4b9c00cd1d10e310432908fc6164736f6c63430007000033",
  "linkReferences": {},
  "deployedLinkReferences": {}
}