{
  "_format": "hh-sol-artifact-1",
  "contractName": "TellorAccess",
  "sourceName": "contracts/TellorAccess.sol",
  "abi": [
    {
      "inputs": [],
      "stateMutability": "nonpayable",
      "type": "constructor"
    },
    {
      "anonymous": false,
      "inputs": [
        {
          "indexed": false,
          "internalType": "uint256",
          "name": "_requestId",
          "type": "uint256"
        },
        {
          "indexed": false,
          "internalType": "uint256",
          "name": "_time",
          "type": "uint256"
        },
        {
          "indexed": false,
          "internalType": "uint256",
          "name": "_value",
          "type": "uint256"
        }
      ],
      "name": "NewValue",
      "type": "event"
    },
    {
      "anonymous": false,
      "inputs": [
        {
          "indexed": true,
          "internalType": "bytes32",
          "name": "role",
          "type": "bytes32"
        },
        {
          "indexed": true,
          "internalType": "bytes32",
          "name": "previousAdminRole",
          "type": "bytes32"
        },
        {
          "indexed": true,
          "internalType": "bytes32",
          "name": "newAdminRole",
          "type": "bytes32"
        }
      ],
      "name": "RoleAdminChanged",
      "type": "event"
    },
    {
      "anonymous": false,
      "inputs": [
        {
          "indexed": true,
          "internalType": "bytes32",
          "name": "role",
          "type": "bytes32"
        },
        {
          "indexed": true,
          "internalType": "address",
          "name": "account",
          "type": "address"
        },
        {
          "indexed": true,
          "internalType": "address",
          "name": "sender",
          "type": "address"
        }
      ],
      "name": "RoleGranted",
      "type": "event"
    },
    {
      "anonymous": false,
      "inputs": [
        {
          "indexed": true,
          "internalType": "bytes32",
          "name": "role",
          "type": "bytes32"
        },
        {
          "indexed": true,
          "internalType": "address",
          "name": "account",
          "type": "address"
        },
        {
          "indexed": true,
          "internalType": "address",
          "name": "sender",
          "type": "address"
        }
      ],
      "name": "RoleRevoked",
      "type": "event"
    },
    {
      "inputs": [],
      "name": "DEFAULT_ADMIN_ROLE",
      "outputs": [
        {
          "internalType": "bytes32",
          "name": "",
          "type": "bytes32"
        }
      ],
      "stateMutability": "view",
      "type": "function"
    },
    {
      "inputs": [],
      "name": "REPORTER_ROLE",
      "outputs": [
        {
          "internalType": "bytes32",
          "name": "",
          "type": "bytes32"
        }
      ],
      "stateMutability": "view",
      "type": "function"
    },
    {
      "inputs": [
        {
          "internalType": "address",
          "name": "_admin_address",
          "type": "address"
        }
      ],
      "name": "addAdmin",
      "outputs": [],
      "stateMutability": "nonpayable",
      "type": "function"
    },
    {
      "inputs": [
        {
          "internalType": "address",
          "name": "_reporter_address",
          "type": "address"
        }
      ],
      "name": "addReporter",
      "outputs": [],
      "stateMutability": "nonpayable",
      "type": "function"
    },
    {
      "inputs": [
        {
          "internalType": "uint256",
          "name": "_requestId",
          "type": "uint256"
        }
      ],
      "name": "getCurrentValue",
      "outputs": [
        {
          "internalType": "bool",
          "name": "",
          "type": "bool"
        },
        {
          "internalType": "uint256",
          "name": "",
          "type": "uint256"
        },
        {
          "internalType": "uint256",
          "name": "",
          "type": "uint256"
        }
      ],
      "stateMutability": "view",
      "type": "function"
    },
    {
      "inputs": [
        {
          "internalType": "uint256",
          "name": "_requestId",
          "type": "uint256"
        },
        {
          "internalType": "uint256",
          "name": "_timestamp",
          "type": "uint256"
        }
      ],
      "name": "getDataBefore",
      "outputs": [
        {
          "internalType": "bool",
          "name": "",
          "type": "bool"
        },
        {
          "internalType": "uint256",
          "name": "",
          "type": "uint256"
        },
        {
          "internalType": "uint256",
          "name": "",
          "type": "uint256"
        }
      ],
      "stateMutability": "view",
      "type": "function"
    },
    {
      "inputs": [
        {
          "internalType": "uint256",
          "name": "_requestId",
          "type": "uint256"
        }
      ],
      "name": "getNewValueCountbyRequestId",
      "outputs": [
        {
          "internalType": "uint256",
          "name": "",
          "type": "uint256"
        }
      ],
      "stateMutability": "view",
      "type": "function"
    },
    {
      "inputs": [
        {
          "internalType": "bytes32",
          "name": "role",
          "type": "bytes32"
        }
      ],
      "name": "getRoleAdmin",
      "outputs": [
        {
          "internalType": "bytes32",
          "name": "",
          "type": "bytes32"
        }
      ],
      "stateMutability": "view",
      "type": "function"
    },
    {
      "inputs": [
        {
          "internalType": "bytes32",
          "name": "role",
          "type": "bytes32"
        },
        {
          "internalType": "uint256",
          "name": "index",
          "type": "uint256"
        }
      ],
      "name": "getRoleMember",
      "outputs": [
        {
          "internalType": "address",
          "name": "",
          "type": "address"
        }
      ],
      "stateMutability": "view",
      "type": "function"
    },
    {
      "inputs": [
        {
          "internalType": "bytes32",
          "name": "role",
          "type": "bytes32"
        }
      ],
      "name": "getRoleMemberCount",
      "outputs": [
        {
          "internalType": "uint256",
          "name": "",
          "type": "uint256"
        }
      ],
      "stateMutability": "view",
      "type": "function"
    },
    {
      "inputs": [
        {
          "internalType": "uint256",
          "name": "_requestId",
          "type": "uint256"
        },
        {
          "internalType": "uint256",
          "name": "_index",
          "type": "uint256"
        }
      ],
      "name": "getTimestampbyRequestIDandIndex",
      "outputs": [
        {
          "internalType": "uint256",
          "name": "",
          "type": "uint256"
        }
      ],
      "stateMutability": "view",
      "type": "function"
    },
    {
      "inputs": [
        {
          "internalType": "bytes32",
          "name": "role",
          "type": "bytes32"
        },
        {
          "internalType": "address",
          "name": "account",
          "type": "address"
        }
      ],
      "name": "grantRole",
      "outputs": [],
      "stateMutability": "nonpayable",
      "type": "function"
    },
    {
      "inputs": [
        {
          "internalType": "bytes32",
          "name": "role",
          "type": "bytes32"
        },
        {
          "internalType": "address",
          "name": "account",
          "type": "address"
        }
      ],
      "name": "hasRole",
      "outputs": [
        {
          "internalType": "bool",
          "name": "",
          "type": "bool"
        }
      ],
      "stateMutability": "view",
      "type": "function"
    },
    {
      "inputs": [
        {
          "internalType": "address",
          "name": "_admin_address",
          "type": "address"
        }
      ],
      "name": "isAdmin",
      "outputs": [
        {
          "internalType": "bool",
          "name": "",
          "type": "bool"
        }
      ],
      "stateMutability": "view",
      "type": "function"
    },
    {
      "inputs": [
        {
          "internalType": "address",
          "name": "_reporter_address",
          "type": "address"
        }
      ],
      "name": "isReporter",
      "outputs": [
        {
          "internalType": "bool",
          "name": "",
          "type": "bool"
        }
      ],
      "stateMutability": "view",
      "type": "function"
    },
    {
      "inputs": [
        {
          "internalType": "address",
          "name": "_reporter_address",
          "type": "address"
        }
      ],
      "name": "removeReporter",
      "outputs": [],
      "stateMutability": "nonpayable",
      "type": "function"
    },
    {
      "inputs": [],
      "name": "renounceAdmin",
      "outputs": [],
      "stateMutability": "nonpayable",
      "type": "function"
    },
    {
      "inputs": [
        {
          "internalType": "bytes32",
          "name": "role",
          "type": "bytes32"
        },
        {
          "internalType": "address",
          "name": "account",
          "type": "address"
        }
      ],
      "name": "renounceRole",
      "outputs": [],
      "stateMutability": "nonpayable",
      "type": "function"
    },
    {
      "inputs": [
        {
          "internalType": "uint256",
          "name": "_requestId",
          "type": "uint256"
        },
        {
          "internalType": "uint256",
          "name": "_timestamp",
          "type": "uint256"
        }
      ],
      "name": "retrieveData",
      "outputs": [
        {
          "internalType": "uint256",
          "name": "",
          "type": "uint256"
        }
      ],
      "stateMutability": "view",
      "type": "function"
    },
    {
      "inputs": [
        {
          "internalType": "bytes32",
          "name": "role",
          "type": "bytes32"
        },
        {
          "internalType": "address",
          "name": "account",
          "type": "address"
        }
      ],
      "name": "revokeRole",
      "outputs": [],
      "stateMutability": "nonpayable",
      "type": "function"
    },
    {
      "inputs": [
        {
          "internalType": "uint256",
          "name": "_requestId",
          "type": "uint256"
        },
        {
          "internalType": "uint256",
          "name": "_value",
          "type": "uint256"
        }
      ],
      "name": "submitValue",
      "outputs": [],
      "stateMutability": "nonpayable",
      "type": "function"
    },
    {
      "inputs": [
        {
          "internalType": "uint256",
          "name": "",
          "type": "uint256"
        },
        {
          "internalType": "uint256",
          "name": "",
          "type": "uint256"
        }
      ],
      "name": "timestamps",
      "outputs": [
        {
          "internalType": "uint256",
          "name": "",
          "type": "uint256"
        }
      ],
      "stateMutability": "view",
      "type": "function"
    },
    {
      "inputs": [
        {
          "internalType": "uint256",
          "name": "",
          "type": "uint256"
        },
        {
          "internalType": "uint256",
          "name": "",
          "type": "uint256"
        }
      ],
      "name": "values",
      "outputs": [
        {
          "internalType": "uint256",
          "name": "",
          "type": "uint256"
        }
      ],
      "stateMutability": "view",
      "type": "function"
    }
  ],
  "bytecode": "0x60806040523480156200001157600080fd5b506200001f60003362000052565b6200004c7f176c2b761bfeb5dab89f614b6c08152e31d9230394b3605eabf32249ea1c89a6600062000062565b620001b8565b6200005e8282620000b4565b5050565b600082815260208190526040808220600201549051839285917fbd79b86ffe0ab8e8776151514217cd7cacd52c909f66475c3af44e129f0b00ff9190a460009182526020829052604090912060020155565b600082815260208181526040909120620000d991839062000c146200012d821b17901c565b156200005e57620000e96200014d565b6001600160a01b0316816001600160a01b0316837f2f8788117e7eff1d82e926ec794901d17c78024a50270940304540a733656f0d60405160405180910390a45050565b600062000144836001600160a01b03841662000151565b90505b92915050565b3390565b60006200015f8383620001a0565b620001975750815460018181018455600084815260208082209093018490558454848252828601909352604090209190915562000147565b50600062000147565b60009081526001919091016020526040902054151590565b6111a180620001c86000396000f3fe608060405234801561001057600080fd5b506004361061018d5760003560e01c806370480275116100e3578063a217fddf1161008c578063d547741f11610066578063d547741f146104d8578063dd8755f214610511578063fb0ceb04146105445761018d565b8063a217fddf14610490578063a318370114610498578063ca15c873146104bb5761018d565b80639010d07c116100bd5780639010d07c146103e857806391d148541461043457806393fa49151461046d5761018d565b8063704802751461038a57806377fbb663146103bd5780638bad0c0a146103e05761018d565b80633f60d799116101455780635de5c2121161011f5780635de5c2121461031157806362f551121461034457806366b44611146103675761018d565b80633f60d799146102af5780633fcad964146102b757806346eee1c4146102f45761018d565b806324d7806c1161017657806324d7806c146102085780632f2ff15d1461023b57806336568abe146102765761018d565b8063044ad7be14610192578063248a9ca3146101d9575b600080fd5b6101c5600480360360208110156101a857600080fd5b503573ffffffffffffffffffffffffffffffffffffffff16610567565b604080519115158252519081900360200190f35b6101f6600480360360208110156101ef57600080fd5b5035610599565b60408051918252519081900360200190f35b6101c56004803603602081101561021e57600080fd5b503573ffffffffffffffffffffffffffffffffffffffff166105ae565b6102746004803603604081101561025157600080fd5b508035906020013573ffffffffffffffffffffffffffffffffffffffff166105ba565b005b6102746004803603604081101561028c57600080fd5b508035906020013573ffffffffffffffffffffffffffffffffffffffff16610640565b6101f66106d5565b6102d4600480360360208110156102cd57600080fd5b50356106f9565b604080519315158452602084019290925282820152519081900360600190f35b6101f66004803603602081101561030a57600080fd5b5035610751565b6102746004803603602081101561032757600080fd5b503573ffffffffffffffffffffffffffffffffffffffff16610763565b6102746004803603604081101561035a57600080fd5b5080359060200135610804565b6102d46004803603604081101561037d57600080fd5b50803590602001356108ed565b610274600480360360208110156103a057600080fd5b503573ffffffffffffffffffffffffffffffffffffffff16610963565b6101f6600480360360408110156103d357600080fd5b50803590602001356109e2565b610274610a3b565b61040b600480360360408110156103fe57600080fd5b5080359060200135610a48565b6040805173ffffffffffffffffffffffffffffffffffffffff9092168252519081900360200190f35b6101c56004803603604081101561044a57600080fd5b508035906020013573ffffffffffffffffffffffffffffffffffffffff16610a67565b6101f66004803603604081101561048357600080fd5b5080359060200135610a7f565b6101f6610a9c565b6101f6600480360360408110156104ae57600080fd5b5080359060200135610aa1565b6101f6600480360360208110156104d157600080fd5b5035610abe565b610274600480360360408110156104ee57600080fd5b508035906020013573ffffffffffffffffffffffffffffffffffffffff16610ad5565b6102746004803603602081101561052757600080fd5b503573ffffffffffffffffffffffffffffffffffffffff16610b48565b6101f66004803603604081101561055a57600080fd5b5080359060200135610be6565b60006105937f176c2b761bfeb5dab89f614b6c08152e31d9230394b3605eabf32249ea1c89a683610a67565b92915050565b60009081526020819052604090206002015490565b60006105938183610a67565b6000828152602081905260409020600201546105dd906105d8610c36565b610a67565b610632576040517f08c379a000000000000000000000000000000000000000000000000000000000815260040180806020018281038252602f8152602001806110ac602f913960400191505060405180910390fd5b61063c8282610c3a565b5050565b610648610c36565b73ffffffffffffffffffffffffffffffffffffffff168173ffffffffffffffffffffffffffffffffffffffff16146106cb576040517f08c379a000000000000000000000000000000000000000000000000000000000815260040180806020018281038252602f81526020018061113d602f913960400191505060405180910390fd5b61063c8282610cbd565b7f176c2b761bfeb5dab89f614b6c08152e31d9230394b3605eabf32249ea1c89a681565b60008060008061070885610751565b9050600061071986600184036109e2565b905060006107278783610a7f565b9050801561073e57600195509350915061074a9050565b50600094508493509150505b9193909250565b60009081526002602052604090205490565b61076c336105ae565b6107d757604080517f08c379a000000000000000000000000000000000000000000000000000000000815260206004820152601560248201527f5265737472696374656420746f2061646d696e732e0000000000000000000000604482015290519081900360640190fd5b6108017f176c2b761bfeb5dab89f614b6c08152e31d9230394b3605eabf32249ea1c89a682610ad5565b50565b61080d33610567565b8061081c575061081c336105ae565b610871576040517f08c379a00000000000000000000000000000000000000000000000000000000081526004018080602001828103825260328152602001806110db6032913960400191505060405180910390fd5b6000828152600160208181526040808420428086529083528185208690558685526002835281852080549485018155855293829020909201839055815185815290810192909252818101839052517fba11e319aee26e7bbac889432515ba301ec8f6d27bf6b94829c21a65c5f6ff259181900360600190a15050565b60008060008060006108ff8787610d40565b915091508161091a576000806000945094509450505061095c565b600061092688836109e2565b905060006109348983610a7f565b9050801561094c57600196509450925061095c915050565b6000806000965096509650505050505b9250925092565b61096c336105ae565b6109d757604080517f08c379a000000000000000000000000000000000000000000000000000000000815260206004820152601560248201527f5265737472696374656420746f2061646d696e732e0000000000000000000000604482015290519081900360640190fd5b6108016000826105ba565b6000828152600260205260408120548015806109fe5750828111155b15610a0d576000915050610593565b6000848152600260205260409020805484908110610a2757fe5b906000526020600020015491505092915050565b610a46600033610640565b565b6000828152602081905260408120610a609083610e66565b9392505050565b6000828152602081905260408120610a609083610e72565b600091825260016020908152604080842092845291905290205490565b600081565b600160209081526000928352604080842090915290825290205481565b600081815260208190526040812061059390610e94565b600082815260208190526040902060020154610af3906105d8610c36565b6106cb576040517f08c379a000000000000000000000000000000000000000000000000000000000815260040180806020018281038252603081526020018061110d6030913960400191505060405180910390fd5b610b51336105ae565b610bbc57604080517f08c379a000000000000000000000000000000000000000000000000000000000815260206004820152601560248201527f5265737472696374656420746f2061646d696e732e0000000000000000000000604482015290519081900360640190fd5b6108017f176c2b761bfeb5dab89f614b6c08152e31d9230394b3605eabf32249ea1c89a6826105ba565b60026020528160005260406000208181548110610bff57fe5b90600052602060002001600091509150505481565b6000610a608373ffffffffffffffffffffffffffffffffffffffff8416610e9f565b3390565b6000828152602081905260409020610c529082610c14565b1561063c57610c5f610c36565b73ffffffffffffffffffffffffffffffffffffffff168173ffffffffffffffffffffffffffffffffffffffff16837f2f8788117e7eff1d82e926ec794901d17c78024a50270940304540a733656f0d60405160405180910390a45050565b6000828152602081905260409020610cd59082610ee9565b1561063c57610ce2610c36565b73ffffffffffffffffffffffffffffffffffffffff168173ffffffffffffffffffffffffffffffffffffffff16837ff6391f5c32d9c69d2a47ea670b442974b53935d1edc7fd64eb21e047a839171b60405160405180910390a45050565b6000806000610d4e85610751565b90508015610e56576000807fffffffffffffffffffffffffffffffffffffffffffffffffffffffffffffffff830181610d8789826109e2565b9050878110610da157600080965096505050505050610e5f565b610dab89836109e2565b905087811015610dc55750600195509350610e5f92505050565b82600281840304600101019350610ddc89856109e2565b905087811015610e1c576000610df58a866001016109e2565b9050888110610e105760018597509750505050505050610e5f565b84600101935050610e51565b6000610e2b8a600187036109e2565b905088811015610e4957600180860397509750505050505050610e5f565b600185039250505b610dc5565b60008092509250505b9250929050565b6000610a608383610f0b565b6000610a608373ffffffffffffffffffffffffffffffffffffffff8416610f89565b600061059382610fa1565b6000610eab8383610f89565b610ee157508154600181810184556000848152602080822090930184905584548482528286019093526040902091909155610593565b506000610593565b6000610a608373ffffffffffffffffffffffffffffffffffffffff8416610fa5565b81546000908210610f67576040517f08c379a000000000000000000000000000000000000000000000000000000000815260040180806020018281038252602281526020018061108a6022913960400191505060405180910390fd5b826000018281548110610f7657fe5b9060005260206000200154905092915050565b60009081526001919091016020526040902054151590565b5490565b6000818152600183016020526040812054801561107f5783547fffffffffffffffffffffffffffffffffffffffffffffffffffffffffffffffff8083019190810190600090879083908110610ff657fe5b906000526020600020015490508087600001848154811061101357fe5b60009182526020808320909101929092558281526001898101909252604090209084019055865487908061104357fe5b60019003818190600052602060002001600090559055866001016000878152602001908152602001600020600090556001945050505050610593565b600091505061059356fe456e756d657261626c655365743a20696e646578206f7574206f6620626f756e6473416363657373436f6e74726f6c3a2073656e646572206d75737420626520616e2061646d696e20746f206772616e7453656e646572206d75737420626520616e2041646d696e206f72205265706f7274657220746f207375626d697456616c7565416363657373436f6e74726f6c3a2073656e646572206d75737420626520616e2061646d696e20746f207265766f6b65416363657373436f6e74726f6c3a2063616e206f6e6c792072656e6f756e636520726f6c657320666f722073656c66a26469706673582212204d343ceceee456757f790c4d8f92702c244672bbc5b6816832ec139574eb317764736f6c63430007000033",
  "linkReferences": {},
  "deployedLinkReferences": {}
}