{
  "_format": "hh-sol-artifact-1",
  "contractName": "TellorAccess",
  "sourceName": "contracts/TellorAccess.sol",
  "abi": [
    {
      "inputs": [],
      "stateMutability": "nonpayable",
      "type": "constructor"
    },
    {
      "anonymous": false,
      "inputs": [
        {
          "indexed": false,
          "internalType": "uint256",
          "name": "_requestId",
          "type": "uint256"
        },
        {
          "indexed": false,
          "internalType": "uint256",
          "name": "_time",
          "type": "uint256"
        },
        {
          "indexed": false,
          "internalType": "uint256",
          "name": "_value",
          "type": "uint256"
        }
      ],
      "name": "NewValue",
      "type": "event"
    },
    {
      "anonymous": false,
      "inputs": [
        {
          "indexed": true,
          "internalType": "bytes32",
          "name": "role",
          "type": "bytes32"
        },
        {
          "indexed": true,
          "internalType": "bytes32",
          "name": "previousAdminRole",
          "type": "bytes32"
        },
        {
          "indexed": true,
          "internalType": "bytes32",
          "name": "newAdminRole",
          "type": "bytes32"
        }
      ],
      "name": "RoleAdminChanged",
      "type": "event"
    },
    {
      "anonymous": false,
      "inputs": [
        {
          "indexed": true,
          "internalType": "bytes32",
          "name": "role",
          "type": "bytes32"
        },
        {
          "indexed": true,
          "internalType": "address",
          "name": "account",
          "type": "address"
        },
        {
          "indexed": true,
          "internalType": "address",
          "name": "sender",
          "type": "address"
        }
      ],
      "name": "RoleGranted",
      "type": "event"
    },
    {
      "anonymous": false,
      "inputs": [
        {
          "indexed": true,
          "internalType": "bytes32",
          "name": "role",
          "type": "bytes32"
        },
        {
          "indexed": true,
          "internalType": "address",
          "name": "account",
          "type": "address"
        },
        {
          "indexed": true,
          "internalType": "address",
          "name": "sender",
          "type": "address"
        }
      ],
      "name": "RoleRevoked",
      "type": "event"
    },
    {
      "inputs": [],
      "name": "DEFAULT_ADMIN_ROLE",
      "outputs": [
        {
          "internalType": "bytes32",
          "name": "",
          "type": "bytes32"
        }
      ],
      "stateMutability": "view",
      "type": "function"
    },
    {
      "inputs": [],
      "name": "REPORTER_ROLE",
      "outputs": [
        {
          "internalType": "bytes32",
          "name": "",
          "type": "bytes32"
        }
      ],
      "stateMutability": "view",
      "type": "function"
    },
    {
      "inputs": [
        {
          "internalType": "address",
          "name": "account",
          "type": "address"
        }
      ],
      "name": "addAdmin",
      "outputs": [],
      "stateMutability": "nonpayable",
      "type": "function"
    },
    {
      "inputs": [
        {
          "internalType": "address",
          "name": "account",
          "type": "address"
        }
      ],
      "name": "addReporter",
      "outputs": [],
      "stateMutability": "nonpayable",
      "type": "function"
    },
    {
      "inputs": [
        {
          "internalType": "bytes32",
          "name": "c__0xf503494c",
          "type": "bytes32"
        }
      ],
      "name": "c_0xf503494c",
      "outputs": [],
      "stateMutability": "pure",
      "type": "function"
    },
    {
      "inputs": [
        {
          "internalType": "uint256",
          "name": "_requestId",
          "type": "uint256"
        }
      ],
      "name": "getNewValueCountbyRequestId",
      "outputs": [
        {
          "internalType": "uint256",
          "name": "",
          "type": "uint256"
        }
      ],
      "stateMutability": "view",
      "type": "function"
    },
    {
      "inputs": [
        {
          "internalType": "bytes32",
          "name": "role",
          "type": "bytes32"
        }
      ],
      "name": "getRoleAdmin",
      "outputs": [
        {
          "internalType": "bytes32",
          "name": "",
          "type": "bytes32"
        }
      ],
      "stateMutability": "view",
      "type": "function"
    },
    {
      "inputs": [
        {
          "internalType": "bytes32",
          "name": "role",
          "type": "bytes32"
        },
        {
          "internalType": "uint256",
          "name": "index",
          "type": "uint256"
        }
      ],
      "name": "getRoleMember",
      "outputs": [
        {
          "internalType": "address",
          "name": "",
          "type": "address"
        }
      ],
      "stateMutability": "view",
      "type": "function"
    },
    {
      "inputs": [
        {
          "internalType": "bytes32",
          "name": "role",
          "type": "bytes32"
        }
      ],
      "name": "getRoleMemberCount",
      "outputs": [
        {
          "internalType": "uint256",
          "name": "",
          "type": "uint256"
        }
      ],
      "stateMutability": "view",
      "type": "function"
    },
    {
      "inputs": [
        {
          "internalType": "uint256",
          "name": "_requestId",
          "type": "uint256"
        },
        {
          "internalType": "uint256",
          "name": "index",
          "type": "uint256"
        }
      ],
      "name": "getTimestampbyRequestIDandIndex",
      "outputs": [
        {
          "internalType": "uint256",
          "name": "",
          "type": "uint256"
        }
      ],
      "stateMutability": "view",
      "type": "function"
    },
    {
      "inputs": [
        {
          "internalType": "bytes32",
          "name": "role",
          "type": "bytes32"
        },
        {
          "internalType": "address",
          "name": "account",
          "type": "address"
        }
      ],
      "name": "grantRole",
      "outputs": [],
      "stateMutability": "nonpayable",
      "type": "function"
    },
    {
      "inputs": [
        {
          "internalType": "bytes32",
          "name": "role",
          "type": "bytes32"
        },
        {
          "internalType": "address",
          "name": "account",
          "type": "address"
        }
      ],
      "name": "hasRole",
      "outputs": [
        {
          "internalType": "bool",
          "name": "",
          "type": "bool"
        }
      ],
      "stateMutability": "view",
      "type": "function"
    },
    {
      "inputs": [
        {
          "internalType": "address",
          "name": "account",
          "type": "address"
        }
      ],
      "name": "isAdmin",
      "outputs": [
        {
          "internalType": "bool",
          "name": "",
          "type": "bool"
        }
      ],
      "stateMutability": "view",
      "type": "function"
    },
    {
      "inputs": [
        {
          "internalType": "address",
          "name": "account",
          "type": "address"
        }
      ],
      "name": "isReporter",
      "outputs": [
        {
          "internalType": "bool",
          "name": "",
          "type": "bool"
        }
      ],
      "stateMutability": "view",
      "type": "function"
    },
    {
      "inputs": [
        {
          "internalType": "address",
          "name": "account",
          "type": "address"
        }
      ],
      "name": "removeReporter",
      "outputs": [],
      "stateMutability": "nonpayable",
      "type": "function"
    },
    {
      "inputs": [],
      "name": "renounceAdmin",
      "outputs": [],
      "stateMutability": "nonpayable",
      "type": "function"
    },
    {
      "inputs": [
        {
          "internalType": "bytes32",
          "name": "role",
          "type": "bytes32"
        },
        {
          "internalType": "address",
          "name": "account",
          "type": "address"
        }
      ],
      "name": "renounceRole",
      "outputs": [],
      "stateMutability": "nonpayable",
      "type": "function"
    },
    {
      "inputs": [
        {
          "internalType": "uint256",
          "name": "_requestId",
          "type": "uint256"
        },
        {
          "internalType": "uint256",
          "name": "_timestamp",
          "type": "uint256"
        }
      ],
      "name": "retrieveData",
      "outputs": [
        {
          "internalType": "uint256",
          "name": "",
          "type": "uint256"
        }
      ],
      "stateMutability": "view",
      "type": "function"
    },
    {
      "inputs": [
        {
          "internalType": "bytes32",
          "name": "role",
          "type": "bytes32"
        },
        {
          "internalType": "address",
          "name": "account",
          "type": "address"
        }
      ],
      "name": "revokeRole",
      "outputs": [],
      "stateMutability": "nonpayable",
      "type": "function"
    },
    {
      "inputs": [
        {
          "internalType": "uint256",
          "name": "_requestId",
          "type": "uint256"
        },
        {
          "internalType": "uint256",
          "name": "_value",
          "type": "uint256"
        }
      ],
      "name": "submitValue",
      "outputs": [],
      "stateMutability": "nonpayable",
      "type": "function"
    },
    {
      "inputs": [
        {
          "internalType": "uint256",
          "name": "",
          "type": "uint256"
        },
        {
          "internalType": "uint256",
          "name": "",
          "type": "uint256"
        }
      ],
      "name": "timestamps",
      "outputs": [
        {
          "internalType": "uint256",
          "name": "",
          "type": "uint256"
        }
      ],
      "stateMutability": "view",
      "type": "function"
    },
    {
      "inputs": [
        {
          "internalType": "uint256",
          "name": "",
          "type": "uint256"
        },
        {
          "internalType": "uint256",
          "name": "",
          "type": "uint256"
        }
      ],
      "name": "values",
      "outputs": [
        {
          "internalType": "uint256",
          "name": "",
          "type": "uint256"
        }
      ],
      "stateMutability": "view",
      "type": "function"
    }
  ],
  "bytecode": "0x60806040523480156200001157600080fd5b50620000467fc6b08aee1d651760292ac4042ea653f2242c01b27c692bf2f796b0dd118556fd60001b6200016660201b60201c565b6200007a7f4e39c00eefbbee98d2cded56bb95f7b6ed06a4e14a1e4d257e2f1f43a905666c60001b6200016660201b60201c565b620000ae7faec841abfb4957ad012487614461e6cc819f606aa8dca6a82a2aeb52739ed59f60001b6200016660201b60201c565b620000c36000801b336200016960201b60201c565b620000f77f3f0cecc29788bc24b8534dfb7b04d0f2cce8ce746eec94b4526b5031cedf0a8260001b6200016660201b60201c565b6200012b7f4098d1e1716964bc267dbc393b9ef5d166b4ccfd39b13c3456c564f44e2f0dfe60001b6200016660201b60201c565b620001607f176c2b761bfeb5dab89f614b6c08152e31d9230394b3605eabf32249ea1c89a66000801b6200017f60201b60201c565b62000361565b50565b6200017b8282620001e160201b60201c565b5050565b8060008084815260200190815260200160002060020154837fbd79b86ffe0ab8e8776151514217cd7cacd52c909f66475c3af44e129f0b00ff60405160405180910390a480600080848152602001908152602001600020600201819055505050565b6200020f816000808581526020019081526020016000206000016200028460201b6200190c1790919060201c565b15620002805762000225620002bc60201b60201c565b73ffffffffffffffffffffffffffffffffffffffff168173ffffffffffffffffffffffffffffffffffffffff16837f2f8788117e7eff1d82e926ec794901d17c78024a50270940304540a733656f0d60405160405180910390a45b5050565b6000620002b4836000018373ffffffffffffffffffffffffffffffffffffffff1660001b620002c460201b60201c565b905092915050565b600033905090565b6000620002d883836200033e60201b60201c565b6200033357826000018290806001815401808255809150506001900390600052602060002001600090919091909150558260000180549050836001016000848152602001908152602001600020819055506001905062000338565b600090505b92915050565b600080836001016000848152602001908152602001600020541415905092915050565b611e2080620003716000396000f3fe608060405234801561001057600080fd5b50600436106101825760003560e01c80638bad0c0a116100d8578063a31837011161008c578063dd8755f211610066578063dd8755f21461069b578063de0ef188146106df578063fb0ceb041461070d57610182565b8063a3183701146105bf578063ca15c8731461060b578063d547741f1461064d57610182565b806391d14854116100bd57806391d14854146104f157806393fa491514610555578063a217fddf146105a157610182565b80638bad0c0a146104855780639010d07c1461048f57610182565b80633f60d7991161013a57806362f551121161011457806362f55112146103bd57806370480275146103f557806377fbb6631461043957610182565b80633f60d7991461031957806346eee1c4146103375780635de5c2121461037957610182565b806324d7806c1161016b57806324d7806c146102235780632f2ff15d1461027d57806336568abe146102cb57610182565b8063044ad7be14610187578063248a9ca3146101e1575b600080fd5b6101c96004803603602081101561019d57600080fd5b81019080803573ffffffffffffffffffffffffffffffffffffffff169060200190929190505050610759565b60405180821515815260200191505060405180910390f35b61020d600480360360208110156101f757600080fd5b8101908080359060200190929190505050610810565b6040518082815260200191505060405180910390f35b6102656004803603602081101561023957600080fd5b81019080803573ffffffffffffffffffffffffffffffffffffffff16906020019092919050505061082f565b60405180821515815260200191505060405180910390f35b6102c96004803603604081101561029357600080fd5b8101908080359060200190929190803573ffffffffffffffffffffffffffffffffffffffff1690602001909291905050506108c9565b005b610317600480360360408110156102e157600080fd5b8101908080359060200190929190803573ffffffffffffffffffffffffffffffffffffffff169060200190929190505050610952565b005b6103216109eb565b6040518082815260200191505060405180910390f35b6103636004803603602081101561034d57600080fd5b8101908080359060200190929190505050610a0f565b6040518082815260200191505060405180910390f35b6103bb6004803603602081101561038f57600080fd5b81019080803573ffffffffffffffffffffffffffffffffffffffff169060200190929190505050610ab3565b005b6103f3600480360360408110156103d357600080fd5b810190808035906020019092919080359060200190929190505050610ce7565b005b6104376004803603602081101561040b57600080fd5b81019080803573ffffffffffffffffffffffffffffffffffffffff169060200190929190505050610fe7565b005b61046f6004803603604081101561044f57600080fd5b8101908080359060200190929190803590602001909291905050506111fe565b6040518082815260200191505060405180910390f35b61048d611424565b005b6104c5600480360360408110156104a557600080fd5b8101908080359060200190929190803590602001909291905050506114b7565b604051808273ffffffffffffffffffffffffffffffffffffffff16815260200191505060405180910390f35b61053d6004803603604081101561050757600080fd5b8101908080359060200190929190803573ffffffffffffffffffffffffffffffffffffffff1690602001909291905050506114e8565b60405180821515815260200191505060405180910390f35b61058b6004803603604081101561056b57600080fd5b810190808035906020019092919080359060200190929190505050611519565b6040518082815260200191505060405180910390f35b6105a96115cc565b6040518082815260200191505060405180910390f35b6105f5600480360360408110156105d557600080fd5b8101908080359060200190929190803590602001909291905050506115d3565b6040518082815260200191505060405180910390f35b6106376004803603602081101561062157600080fd5b81019080803590602001909291905050506115f8565b6040518082815260200191505060405180910390f35b6106996004803603604081101561066357600080fd5b8101908080359060200190929190803573ffffffffffffffffffffffffffffffffffffffff16906020019092919050505061161e565b005b6106dd600480360360208110156106b157600080fd5b81019080803573ffffffffffffffffffffffffffffffffffffffff1690602001909291905050506116a7565b005b61070b600480360360208110156106f557600080fd5b81019080803590602001909291905050506118db565b005b6107436004803603604081101561072357600080fd5b8101908080359060200190929190803590602001909291905050506118de565b6040518082815260200191505060405180910390f35b60006107877ff54de96a6b0f1e302aee8d7f95829cefaa70b030610ecb0951f2e4bbaf8ce0c960001b6118db565b6107b37fdab20ba11bed5171be2c2d093a3957bd914953271a869801b87be44cf64523c260001b6118db565b6107df7ff5e03f50ce48fb20f632d63549ee11d9ec9348358f87d56206f2e23cc0d8a0e560001b6118db565b6108097f176c2b761bfeb5dab89f614b6c08152e31d9230394b3605eabf32249ea1c89a6836114e8565b9050919050565b6000806000838152602001908152602001600020600201549050919050565b600061085d7f8623039a08acd822dee121268547e346d7e7bea142de92a38c0f94b4669e58e860001b6118db565b6108897fcb806bb50a07d306fe4b316dfb44150591788ad097f80609103c5f7206acf0e360001b6118db565b6108b57f9a2a3cc0e1c51a161fc2f8ae5596c51c35ab179eeaad4b058be813e61897b4c860001b6118db565b6108c26000801b836114e8565b9050919050565b6108ef600080848152602001908152602001600020600201546108ea61193c565b6114e8565b610944576040517f08c379a000000000000000000000000000000000000000000000000000000000815260040180806020018281038252602f815260200180611d2b602f913960400191505060405180910390fd5b61094e8282611944565b5050565b61095a61193c565b73ffffffffffffffffffffffffffffffffffffffff168173ffffffffffffffffffffffffffffffffffffffff16146109dd576040517f08c379a000000000000000000000000000000000000000000000000000000000815260040180806020018281038252602f815260200180611dbc602f913960400191505060405180910390fd5b6109e782826119d7565b5050565b7f176c2b761bfeb5dab89f614b6c08152e31d9230394b3605eabf32249ea1c89a681565b6000610a3d7f503a16da38e71e7bace6fe1f99c69adf154700b332f7356a846e033dec9741da60001b6118db565b610a697f2ed8d5fe9135677c477f8f3ecd7a4256f04a4ff301bba1bd98f77b53b0f5aa5060001b6118db565b610a957f11aa2427fc89ed6e6ed31a082ab8c6ba00ecac83001d180ff9e562917cdc338760001b6118db565b60026000838152602001908152602001600020805490509050919050565b610adf7f0e77a5e54c196ea29dc309e2f68c4223daf1968de80adc5a2ac702bf5ab9c79e60001b6118db565b610b0b7fe9f980434a095784833a291a073cdb6a41ab9199099578db1d3341acd44a2de460001b6118db565b610b377f9595b610fd1b9c919129dea5ddfe638c65600694e2ce37d9422f767f67c136ec60001b6118db565b610b637f78d0f1e7604b8b03fc1f985b1f847a1c7ffd01321438d1e4bd201dc1078a72a860001b6118db565b610b6c3361082f565b610bde576040517f08c379a00000000000000000000000000000000000000000000000000000000081526004018080602001828103825260158152602001807f5265737472696374656420746f2061646d696e732e000000000000000000000081525060200191505060405180910390fd5b610c0a7f429b3ecf8c1da568a2089c011fbeed3678bf23e259fd14668e6fbfef767fe46860001b6118db565b610c367f033b13fa1064ccc6c9ad4d7776ecef9aec9835a1d8f0c6150cd947abd1899cd560001b6118db565b610c627ff97011770cd3eebb1618366d789416ba95163a626f368ca4383dffc1952b3c7660001b6118db565b610c8e7f610617ce496b0c0d0459b71c9c95724872c5b0252c78f630ff2c583c044f22d760001b6118db565b610cba7fb934982a5d13e5de7749ddcb19a0d3e46082f0724fe020fb64b00bc5ba3d4a5f60001b6118db565b610ce47f176c2b761bfeb5dab89f614b6c08152e31d9230394b3605eabf32249ea1c89a68261161e565b50565b610d137fb68984996296ad029cf1c0a5f1a0dbe3b4c1cc9783e3496ab762570e9311a54e60001b6118db565b610d3f7fcd8329a6919154e0b467c3c10a069c8c734098c58a236f23f9cec2f183e0561e60001b6118db565b610d6b7f407a553c794813dffd15ec66138cbcb88cf43cf000721ba905f91c17106a220160001b6118db565b610d977f1494819d655fdf72b94a9ff2c059ce92bdf5a1d1e8793979f69782874fe8313060001b6118db565b610da033610759565b80610db05750610daf3361082f565b5b610e05576040517f08c379a0000000000000000000000000000000000000000000000000000000008152600401808060200182810382526032815260200180611d5a6032913960400191505060405180910390fd5b610e317f8ca6475829765540af2c1b59ee2d814b5dd433cf52800d812f9e6774b55eb37660001b6118db565b610e5d7f920e320c5254fcf4049309d9897d4bc88721355ee56cfa7e51d84d1950d3bd0760001b6118db565b610e897fad4f78a587a01de431bcebb6a5c73627d8d338a654d65bc681f544b18ef87fe460001b6118db565b8060016000848152602001908152602001600020600042815260200190815260200160002081905550610ede7fdbf86b1ec5755caa9ebfe27e46b4413982ff59ff910f42a487b0eedff95e364b60001b6118db565b610f0a7f2d16d3e857355920d0623bdd93cc0d23ad3ccd45e0df5a75d7bbfbabe13741df60001b6118db565b60026000838152602001908152602001600020429080600181540180825580915050600190039060005260206000200160009091909190915055610f707ffac8d8cdacd09a6c65b89771ff88b2a5673371a4be79ab262af1669a31b618b460001b6118db565b610f9c7f3c48e8bd819e8b6df826dc24c7aa9fe3d831b9b618c0b7b721052ffb026aed7f60001b6118db565b7fba11e319aee26e7bbac889432515ba301ec8f6d27bf6b94829c21a65c5f6ff2582428360405180848152602001838152602001828152602001935050505060405180910390a15050565b6110137f0e77a5e54c196ea29dc309e2f68c4223daf1968de80adc5a2ac702bf5ab9c79e60001b6118db565b61103f7fe9f980434a095784833a291a073cdb6a41ab9199099578db1d3341acd44a2de460001b6118db565b61106b7f9595b610fd1b9c919129dea5ddfe638c65600694e2ce37d9422f767f67c136ec60001b6118db565b6110977f78d0f1e7604b8b03fc1f985b1f847a1c7ffd01321438d1e4bd201dc1078a72a860001b6118db565b6110a03361082f565b611112576040517f08c379a00000000000000000000000000000000000000000000000000000000081526004018080602001828103825260158152602001807f5265737472696374656420746f2061646d696e732e000000000000000000000081525060200191505060405180910390fd5b61113e7f429b3ecf8c1da568a2089c011fbeed3678bf23e259fd14668e6fbfef767fe46860001b6118db565b61116a7f033b13fa1064ccc6c9ad4d7776ecef9aec9835a1d8f0c6150cd947abd1899cd560001b6118db565b6111967fe22d29e131054f3c994f0d6d0e56b945c3b27d7d46bba6051e5117dc2557a9ce60001b6118db565b6111c27f5d9d4e99a91272d9835f0344f013f5ecedd68addb9fe76318cc5ab6ccc528aa760001b6118db565b6111ee7f779753cdb8855d295ba63b5e4fe53b52bf48c517a4f99d1e2b4bd54a790b952b60001b6118db565b6111fb6000801b826108c9565b50565b600061122c7f277c50936358732bcb7ce0411a22cbe9ab2337b20bd35e5dd5e1da7a1f6e652e60001b6118db565b6112587fcc87f107edf8d44825dcab64e93c264d8e2e046b5bab84d3729ebbad781942c260001b6118db565b6112847f3ba42484ad8627222eb591cc7f5f41bc3e009db7b608b17adde0ed502e9c760a60001b6118db565b6000600260008581526020019081526020016000208054905090506112cb7ff813aad69bac4a813ed915bc4dbaa09cbf71a2af0d7c9a330736e2f36f0a0ed460001b6118db565b6112f77fc3cefdf26052bb70f9ddb00df44cc5beb13dc5e2968f244d0f51beada13720d560001b6118db565b60008114806113065750828111155b1561136d576113377f2e33720cf25f6b8e1092b5a1bb96fb16002cef3d8405d41a71c58af31be2ce8860001b6118db565b6113637f09f30554b2afe6c5ae770212b081f5de25ec9de1167a12c385bffb04989c9e2c60001b6118db565b600091505061141e565b6113997fd6e06438bb09af04503f235afee5e843e740b935e191b28eca427e01bdfaf85f60001b6118db565b6113c57fc902d63022b053c0c683c7861c39e35890eefaf3707eea062b6829cc7b18777760001b6118db565b6113f17f06691175a989b65eb9bd39d4bc024718fbdc0d256b780c67cf49916d878e4a4b60001b6118db565b60026000858152602001908152602001600020838154811061140f57fe5b90600052602060002001549150505b92915050565b6114507f476652241d4761bd624a0c2555256ff09d5fb8c6084d631fe985ef14595f3d6160001b6118db565b61147c7f622c26f9fef51842b1a83c52fb48b055910186a93cae8de00b07e43937bec61060001b6118db565b6114a87f0409301906a6a9c2144c18a65b7d89aedd2ff8a4801f344b8c4c9bd1820c5b9960001b6118db565b6114b56000801b33610952565b565b60006114e082600080868152602001908152602001600020600001611a6a90919063ffffffff16565b905092915050565b600061151182600080868152602001908152602001600020600001611a8490919063ffffffff16565b905092915050565b60006115477f3f18806e18d20dd0c20b1b0ace60256d681454dd013ca49ecfb200390d8ddf8860001b6118db565b6115737f6d00c549f3c0bded4cdae463341b651885e0fb498816f59bfd10568a1ddf965260001b6118db565b61159f7f8584091a725cc0c597289f1ede5eac9c8c2d5779c561d38d703684b79d22f7c160001b6118db565b60016000848152602001908152602001600020600083815260200190815260200160002054905092915050565b6000801b81565b6001602052816000526040600020602052806000526040600020600091509150505481565b6000611617600080848152602001908152602001600020600001611ab4565b9050919050565b6116446000808481526020019081526020016000206002015461163f61193c565b6114e8565b611699576040517f08c379a0000000000000000000000000000000000000000000000000000000008152600401808060200182810382526030815260200180611d8c6030913960400191505060405180910390fd5b6116a382826119d7565b5050565b6116d37f0e77a5e54c196ea29dc309e2f68c4223daf1968de80adc5a2ac702bf5ab9c79e60001b6118db565b6116ff7fe9f980434a095784833a291a073cdb6a41ab9199099578db1d3341acd44a2de460001b6118db565b61172b7f9595b610fd1b9c919129dea5ddfe638c65600694e2ce37d9422f767f67c136ec60001b6118db565b6117577f78d0f1e7604b8b03fc1f985b1f847a1c7ffd01321438d1e4bd201dc1078a72a860001b6118db565b6117603361082f565b6117d2576040517f08c379a00000000000000000000000000000000000000000000000000000000081526004018080602001828103825260158152602001807f5265737472696374656420746f2061646d696e732e000000000000000000000081525060200191505060405180910390fd5b6117fe7f429b3ecf8c1da568a2089c011fbeed3678bf23e259fd14668e6fbfef767fe46860001b6118db565b61182a7f033b13fa1064ccc6c9ad4d7776ecef9aec9835a1d8f0c6150cd947abd1899cd560001b6118db565b6118567f5513e8eb426176372e83e140cada4fa2da0f8572dee369b0c6c23b216dd0336e60001b6118db565b6118827f5b1d0c6a7147f51924e51f4f33b18c5a033c2652cbf52b128f85a628c0f5a52760001b6118db565b6118ae7feb3f27b671e7dcbf9a96657edddce7d837b25ad448e7ca694624a31bbdf1dd1760001b6118db565b6118d87f176c2b761bfeb5dab89f614b6c08152e31d9230394b3605eabf32249ea1c89a6826108c9565b50565b50565b600260205281600052604060002081815481106118f757fe5b90600052602060002001600091509150505481565b6000611934836000018373ffffffffffffffffffffffffffffffffffffffff1660001b611ac9565b905092915050565b600033905090565b61196b8160008085815260200190815260200160002060000161190c90919063ffffffff16565b156119d35761197861193c565b73ffffffffffffffffffffffffffffffffffffffff168173ffffffffffffffffffffffffffffffffffffffff16837f2f8788117e7eff1d82e926ec794901d17c78024a50270940304540a733656f0d60405160405180910390a45b5050565b6119fe81600080858152602001908152602001600020600001611b3990919063ffffffff16565b15611a6657611a0b61193c565b73ffffffffffffffffffffffffffffffffffffffff168173ffffffffffffffffffffffffffffffffffffffff16837ff6391f5c32d9c69d2a47ea670b442974b53935d1edc7fd64eb21e047a839171b60405160405180910390a45b5050565b6000611a798360000183611b69565b60001c905092915050565b6000611aac836000018373ffffffffffffffffffffffffffffffffffffffff1660001b611bec565b905092915050565b6000611ac282600001611c0f565b9050919050565b6000611ad58383611bec565b611b2e578260000182908060018154018082558091505060019003906000526020600020016000909190919091505582600001805490508360010160008481526020019081526020016000208190555060019050611b33565b600090505b92915050565b6000611b61836000018373ffffffffffffffffffffffffffffffffffffffff1660001b611c20565b905092915050565b600081836000018054905011611bca576040517f08c379a0000000000000000000000000000000000000000000000000000000008152600401808060200182810382526022815260200180611d096022913960400191505060405180910390fd5b826000018281548110611bd957fe5b9060005260206000200154905092915050565b600080836001016000848152602001908152602001600020541415905092915050565b600081600001805490509050919050565b60008083600101600084815260200190815260200160002054905060008114611cfc5760006001820390506000600186600001805490500390506000866000018281548110611c6b57fe5b9060005260206000200154905080876000018481548110611c8857fe5b9060005260206000200181905550600183018760010160008381526020019081526020016000208190555086600001805480611cc057fe5b60019003818190600052602060002001600090559055866001016000878152602001908152602001600020600090556001945050505050611d02565b60009150505b9291505056fe456e756d657261626c655365743a20696e646578206f7574206f6620626f756e6473416363657373436f6e74726f6c3a2073656e646572206d75737420626520616e2061646d696e20746f206772616e7453656e646572206d75737420626520616e2041646d696e206f72205265706f7274657220746f207375626d697456616c7565416363657373436f6e74726f6c3a2073656e646572206d75737420626520616e2061646d696e20746f207265766f6b65416363657373436f6e74726f6c3a2063616e206f6e6c792072656e6f756e636520726f6c657320666f722073656c66a2646970667358221220b2f2daa2765acc3d02bd3c3216c1f2182395680941168bf64e1586f4bff2521f64736f6c63430007000033",
  "linkReferences": {},
  "deployedLinkReferences": {}
}