{
  "_format": "hh-sol-artifact-1",
  "contractName": "TellorAccess",
  "sourceName": "contracts/TellorAccess.sol",
  "abi": [
    {
      "inputs": [],
      "stateMutability": "nonpayable",
      "type": "constructor"
    },
    {
      "anonymous": false,
      "inputs": [
        {
          "indexed": false,
          "internalType": "uint256",
          "name": "_requestId",
          "type": "uint256"
        },
        {
          "indexed": false,
          "internalType": "uint256",
          "name": "_time",
          "type": "uint256"
        },
        {
          "indexed": false,
          "internalType": "uint256",
          "name": "_value",
          "type": "uint256"
        }
      ],
      "name": "NewValue",
      "type": "event"
    },
    {
      "anonymous": false,
      "inputs": [
        {
          "indexed": true,
          "internalType": "bytes32",
          "name": "role",
          "type": "bytes32"
        },
        {
          "indexed": true,
          "internalType": "bytes32",
          "name": "previousAdminRole",
          "type": "bytes32"
        },
        {
          "indexed": true,
          "internalType": "bytes32",
          "name": "newAdminRole",
          "type": "bytes32"
        }
      ],
      "name": "RoleAdminChanged",
      "type": "event"
    },
    {
      "anonymous": false,
      "inputs": [
        {
          "indexed": true,
          "internalType": "bytes32",
          "name": "role",
          "type": "bytes32"
        },
        {
          "indexed": true,
          "internalType": "address",
          "name": "account",
          "type": "address"
        },
        {
          "indexed": true,
          "internalType": "address",
          "name": "sender",
          "type": "address"
        }
      ],
      "name": "RoleGranted",
      "type": "event"
    },
    {
      "anonymous": false,
      "inputs": [
        {
          "indexed": true,
          "internalType": "bytes32",
          "name": "role",
          "type": "bytes32"
        },
        {
          "indexed": true,
          "internalType": "address",
          "name": "account",
          "type": "address"
        },
        {
          "indexed": true,
          "internalType": "address",
          "name": "sender",
          "type": "address"
        }
      ],
      "name": "RoleRevoked",
      "type": "event"
    },
    {
      "inputs": [],
      "name": "DEFAULT_ADMIN_ROLE",
      "outputs": [
        {
          "internalType": "bytes32",
          "name": "",
          "type": "bytes32"
        }
      ],
      "stateMutability": "view",
      "type": "function"
    },
    {
      "inputs": [],
      "name": "REPORTER_ROLE",
      "outputs": [
        {
          "internalType": "bytes32",
          "name": "",
          "type": "bytes32"
        }
      ],
      "stateMutability": "view",
      "type": "function"
    },
    {
      "inputs": [
        {
          "internalType": "address",
          "name": "account",
          "type": "address"
        }
      ],
      "name": "addAdmin",
      "outputs": [],
      "stateMutability": "nonpayable",
      "type": "function"
    },
    {
      "inputs": [
        {
          "internalType": "address",
          "name": "account",
          "type": "address"
        }
      ],
      "name": "addReporter",
      "outputs": [],
      "stateMutability": "nonpayable",
      "type": "function"
    },
    {
      "inputs": [
        {
          "internalType": "uint256",
          "name": "_requestId",
          "type": "uint256"
        }
      ],
      "name": "getNewValueCountbyRequestId",
      "outputs": [
        {
          "internalType": "uint256",
          "name": "",
          "type": "uint256"
        }
      ],
      "stateMutability": "view",
      "type": "function"
    },
    {
      "inputs": [
        {
          "internalType": "bytes32",
          "name": "role",
          "type": "bytes32"
        }
      ],
      "name": "getRoleAdmin",
      "outputs": [
        {
          "internalType": "bytes32",
          "name": "",
          "type": "bytes32"
        }
      ],
      "stateMutability": "view",
      "type": "function"
    },
    {
      "inputs": [
        {
          "internalType": "bytes32",
          "name": "role",
          "type": "bytes32"
        },
        {
          "internalType": "uint256",
          "name": "index",
          "type": "uint256"
        }
      ],
      "name": "getRoleMember",
      "outputs": [
        {
          "internalType": "address",
          "name": "",
          "type": "address"
        }
      ],
      "stateMutability": "view",
      "type": "function"
    },
    {
      "inputs": [
        {
          "internalType": "bytes32",
          "name": "role",
          "type": "bytes32"
        }
      ],
      "name": "getRoleMemberCount",
      "outputs": [
        {
          "internalType": "uint256",
          "name": "",
          "type": "uint256"
        }
      ],
      "stateMutability": "view",
      "type": "function"
    },
    {
      "inputs": [
        {
          "internalType": "uint256",
          "name": "_requestId",
          "type": "uint256"
        },
        {
          "internalType": "uint256",
          "name": "index",
          "type": "uint256"
        }
      ],
      "name": "getTimestampbyRequestIDandIndex",
      "outputs": [
        {
          "internalType": "uint256",
          "name": "",
          "type": "uint256"
        }
      ],
      "stateMutability": "view",
      "type": "function"
    },
    {
      "inputs": [
        {
          "internalType": "bytes32",
          "name": "role",
          "type": "bytes32"
        },
        {
          "internalType": "address",
          "name": "account",
          "type": "address"
        }
      ],
      "name": "grantRole",
      "outputs": [],
      "stateMutability": "nonpayable",
      "type": "function"
    },
    {
      "inputs": [
        {
          "internalType": "bytes32",
          "name": "role",
          "type": "bytes32"
        },
        {
          "internalType": "address",
          "name": "account",
          "type": "address"
        }
      ],
      "name": "hasRole",
      "outputs": [
        {
          "internalType": "bool",
          "name": "",
          "type": "bool"
        }
      ],
      "stateMutability": "view",
      "type": "function"
    },
    {
      "inputs": [
        {
          "internalType": "address",
          "name": "account",
          "type": "address"
        }
      ],
      "name": "isAdmin",
      "outputs": [
        {
          "internalType": "bool",
          "name": "",
          "type": "bool"
        }
      ],
      "stateMutability": "view",
      "type": "function"
    },
    {
      "inputs": [
        {
          "internalType": "address",
          "name": "account",
          "type": "address"
        }
      ],
      "name": "isReporter",
      "outputs": [
        {
          "internalType": "bool",
          "name": "",
          "type": "bool"
        }
      ],
      "stateMutability": "view",
      "type": "function"
    },
    {
      "inputs": [
        {
          "internalType": "address",
          "name": "account",
          "type": "address"
        }
      ],
      "name": "removeReporter",
      "outputs": [],
      "stateMutability": "nonpayable",
      "type": "function"
    },
    {
      "inputs": [],
      "name": "renounceAdmin",
      "outputs": [],
      "stateMutability": "nonpayable",
      "type": "function"
    },
    {
      "inputs": [
        {
          "internalType": "bytes32",
          "name": "role",
          "type": "bytes32"
        },
        {
          "internalType": "address",
          "name": "account",
          "type": "address"
        }
      ],
      "name": "renounceRole",
      "outputs": [],
      "stateMutability": "nonpayable",
      "type": "function"
    },
    {
      "inputs": [
        {
          "internalType": "uint256",
          "name": "_requestId",
          "type": "uint256"
        },
        {
          "internalType": "uint256",
          "name": "_timestamp",
          "type": "uint256"
        }
      ],
      "name": "retrieveData",
      "outputs": [
        {
          "internalType": "uint256",
          "name": "",
          "type": "uint256"
        }
      ],
      "stateMutability": "view",
      "type": "function"
    },
    {
      "inputs": [
        {
          "internalType": "bytes32",
          "name": "role",
          "type": "bytes32"
        },
        {
          "internalType": "address",
          "name": "account",
          "type": "address"
        }
      ],
      "name": "revokeRole",
      "outputs": [],
      "stateMutability": "nonpayable",
      "type": "function"
    },
    {
      "inputs": [
        {
          "internalType": "uint256",
          "name": "_requestId",
          "type": "uint256"
        },
        {
          "internalType": "uint256",
          "name": "_value",
          "type": "uint256"
        }
      ],
      "name": "submitValue",
      "outputs": [],
      "stateMutability": "nonpayable",
      "type": "function"
    },
    {
      "inputs": [
        {
          "internalType": "uint256",
          "name": "",
          "type": "uint256"
        },
        {
          "internalType": "uint256",
          "name": "",
          "type": "uint256"
        }
      ],
      "name": "timestamps",
      "outputs": [
        {
          "internalType": "uint256",
          "name": "",
          "type": "uint256"
        }
      ],
      "stateMutability": "view",
      "type": "function"
    },
    {
      "inputs": [
        {
          "internalType": "uint256",
          "name": "",
          "type": "uint256"
        },
        {
          "internalType": "uint256",
          "name": "",
          "type": "uint256"
        }
      ],
      "name": "values",
      "outputs": [
        {
          "internalType": "uint256",
          "name": "",
          "type": "uint256"
        }
      ],
      "stateMutability": "view",
      "type": "function"
    }
  ],
  "bytecode": "0x60806040523480156200001157600080fd5b506200001f60003362000052565b6200004c7f176c2b761bfeb5dab89f614b6c08152e31d9230394b3605eabf32249ea1c89a6600062000062565b620001b8565b6200005e8282620000b4565b5050565b600082815260208190526040808220600201549051839285917fbd79b86ffe0ab8e8776151514217cd7cacd52c909f66475c3af44e129f0b00ff9190a460009182526020829052604090912060020155565b600082815260208181526040909120620000d991839062000ad06200012d821b17901c565b156200005e57620000e96200014d565b6001600160a01b0316816001600160a01b0316837f2f8788117e7eff1d82e926ec794901d17c78024a50270940304540a733656f0d60405160405180910390a45050565b600062000144836001600160a01b03841662000151565b90505b92915050565b3390565b60006200015f8383620001a0565b620001975750815460018181018455600084815260208082209093018490558454848252828601909352604090209190915562000147565b50600062000147565b60009081526001919091016020526040902054151590565b610f3780620001c86000396000f3fe608060405234801561001057600080fd5b50600436106101775760003560e01c806377fbb663116100d8578063a217fddf1161008c578063d547741f11610066578063d547741f14610462578063dd8755f21461049b578063fb0ceb04146104ce57610177565b8063a217fddf1461041a578063a318370114610422578063ca15c8731461044557610177565b80639010d07c116100bd5780639010d07c1461037257806391d14854146103be57806393fa4915146103f757610177565b806377fbb663146103475780638bad0c0a1461036a57610177565b80633f60d7991161012f5780635de5c212116101145780635de5c212146102be57806362f55112146102f1578063704802751461031457610177565b80633f60d7991461029957806346eee1c4146102a157610177565b806324d7806c1161016057806324d7806c146101f25780632f2ff15d1461022557806336568abe1461026057610177565b8063044ad7be1461017c578063248a9ca3146101c3575b600080fd5b6101af6004803603602081101561019257600080fd5b503573ffffffffffffffffffffffffffffffffffffffff166104f1565b604080519115158252519081900360200190f35b6101e0600480360360208110156101d957600080fd5b5035610523565b60408051918252519081900360200190f35b6101af6004803603602081101561020857600080fd5b503573ffffffffffffffffffffffffffffffffffffffff16610538565b61025e6004803603604081101561023b57600080fd5b508035906020013573ffffffffffffffffffffffffffffffffffffffff16610544565b005b61025e6004803603604081101561027657600080fd5b508035906020013573ffffffffffffffffffffffffffffffffffffffff166105ca565b6101e061065f565b6101e0600480360360208110156102b757600080fd5b5035610683565b61025e600480360360208110156102d457600080fd5b503573ffffffffffffffffffffffffffffffffffffffff16610695565b61025e6004803603604081101561030757600080fd5b5080359060200135610736565b61025e6004803603602081101561032a57600080fd5b503573ffffffffffffffffffffffffffffffffffffffff1661081f565b6101e06004803603604081101561035d57600080fd5b508035906020013561089e565b61025e6108f7565b6103956004803603604081101561038857600080fd5b5080359060200135610904565b6040805173ffffffffffffffffffffffffffffffffffffffff9092168252519081900360200190f35b6101af600480360360408110156103d457600080fd5b508035906020013573ffffffffffffffffffffffffffffffffffffffff16610923565b6101e06004803603604081101561040d57600080fd5b508035906020013561093b565b6101e0610958565b6101e06004803603604081101561043857600080fd5b508035906020013561095d565b6101e06004803603602081101561045b57600080fd5b503561097a565b61025e6004803603604081101561047857600080fd5b508035906020013573ffffffffffffffffffffffffffffffffffffffff16610991565b61025e600480360360208110156104b157600080fd5b503573ffffffffffffffffffffffffffffffffffffffff16610a04565b6101e0600480360360408110156104e457600080fd5b5080359060200135610aa2565b600061051d7f176c2b761bfeb5dab89f614b6c08152e31d9230394b3605eabf32249ea1c89a683610923565b92915050565b60009081526020819052604090206002015490565b600061051d8183610923565b60008281526020819052604090206002015461056790610562610af2565b610923565b6105bc576040517f08c379a000000000000000000000000000000000000000000000000000000000815260040180806020018281038252602f815260200180610e42602f913960400191505060405180910390fd5b6105c68282610af6565b5050565b6105d2610af2565b73ffffffffffffffffffffffffffffffffffffffff168173ffffffffffffffffffffffffffffffffffffffff1614610655576040517f08c379a000000000000000000000000000000000000000000000000000000000815260040180806020018281038252602f815260200180610ed3602f913960400191505060405180910390fd5b6105c68282610b79565b7f176c2b761bfeb5dab89f614b6c08152e31d9230394b3605eabf32249ea1c89a681565b60009081526002602052604090205490565b61069e33610538565b61070957604080517f08c379a000000000000000000000000000000000000000000000000000000000815260206004820152601560248201527f5265737472696374656420746f2061646d696e732e0000000000000000000000604482015290519081900360640190fd5b6107337f176c2b761bfeb5dab89f614b6c08152e31d9230394b3605eabf32249ea1c89a682610991565b50565b61073f336104f1565b8061074e575061074e33610538565b6107a3576040517f08c379a0000000000000000000000000000000000000000000000000000000008152600401808060200182810382526032815260200180610e716032913960400191505060405180910390fd5b6000828152600160208181526040808420428086529083528185208690558685526002835281852080549485018155855293829020909201839055815185815290810192909252818101839052517fba11e319aee26e7bbac889432515ba301ec8f6d27bf6b94829c21a65c5f6ff259181900360600190a15050565b61082833610538565b61089357604080517f08c379a000000000000000000000000000000000000000000000000000000000815260206004820152601560248201527f5265737472696374656420746f2061646d696e732e0000000000000000000000604482015290519081900360640190fd5b610733600082610544565b6000828152600260205260408120548015806108ba5750828111155b156108c957600091505061051d565b60008481526002602052604090208054849081106108e357fe5b906000526020600020015491505092915050565b6109026000336105ca565b565b600082815260208190526040812061091c9083610bfc565b9392505050565b600082815260208190526040812061091c9083610c08565b600091825260016020908152604080842092845291905290205490565b600081565b600160209081526000928352604080842090915290825290205481565b600081815260208190526040812061051d90610c2a565b6000828152602081905260409020600201546109af90610562610af2565b610655576040517f08c379a0000000000000000000000000000000000000000000000000000000008152600401808060200182810382526030815260200180610ea36030913960400191505060405180910390fd5b610a0d33610538565b610a7857604080517f08c379a000000000000000000000000000000000000000000000000000000000815260206004820152601560248201527f5265737472696374656420746f2061646d696e732e0000000000000000000000604482015290519081900360640190fd5b6107337f176c2b761bfeb5dab89f614b6c08152e31d9230394b3605eabf32249ea1c89a682610544565b60026020528160005260406000208181548110610abb57fe5b90600052602060002001600091509150505481565b600061091c8373ffffffffffffffffffffffffffffffffffffffff8416610c35565b3390565b6000828152602081905260409020610b0e9082610ad0565b156105c657610b1b610af2565b73ffffffffffffffffffffffffffffffffffffffff168173ffffffffffffffffffffffffffffffffffffffff16837f2f8788117e7eff1d82e926ec794901d17c78024a50270940304540a733656f0d60405160405180910390a45050565b6000828152602081905260409020610b919082610c7f565b156105c657610b9e610af2565b73ffffffffffffffffffffffffffffffffffffffff168173ffffffffffffffffffffffffffffffffffffffff16837ff6391f5c32d9c69d2a47ea670b442974b53935d1edc7fd64eb21e047a839171b60405160405180910390a45050565b600061091c8383610ca1565b600061091c8373ffffffffffffffffffffffffffffffffffffffff8416610d1f565b600061051d82610d37565b6000610c418383610d1f565b610c775750815460018181018455600084815260208082209093018490558454848252828601909352604090209190915561051d565b50600061051d565b600061091c8373ffffffffffffffffffffffffffffffffffffffff8416610d3b565b81546000908210610cfd576040517f08c379a0000000000000000000000000000000000000000000000000000000008152600401808060200182810382526022815260200180610e206022913960400191505060405180910390fd5b826000018281548110610d0c57fe5b9060005260206000200154905092915050565b60009081526001919091016020526040902054151590565b5490565b60008181526001830160205260408120548015610e155783547fffffffffffffffffffffffffffffffffffffffffffffffffffffffffffffffff8083019190810190600090879083908110610d8c57fe5b9060005260206000200154905080876000018481548110610da957fe5b600091825260208083209091019290925582815260018981019092526040902090840190558654879080610dd957fe5b6001900381819060005260206000200160009055905586600101600087815260200190815260200160002060009055600194505050505061051d565b600091505061051d56fe456e756d657261626c655365743a20696e646578206f7574206f6620626f756e6473416363657373436f6e74726f6c3a2073656e646572206d75737420626520616e2061646d696e20746f206772616e7453656e646572206d75737420626520616e2041646d696e206f72205265706f7274657220746f207375626d697456616c7565416363657373436f6e74726f6c3a2073656e646572206d75737420626520616e2061646d696e20746f207265766f6b65416363657373436f6e74726f6c3a2063616e206f6e6c792072656e6f756e636520726f6c657320666f722073656c66a264697066735822122013b9226158b5d0ef4ddfdb753bbd74412da3f97696c66d344b16ec6ab1cc662864736f6c63430007000033",
  "linkReferences": {},
  "deployedLinkReferences": {}
}